:020000040800F2
:10000000B8750020E9010008D3440008653F0008E6
:10001000D1440008291600088F6200080000000083
:100020000000000000000000000000006D48000813
:10003000DB16000800000000E94700086F480008D0
:10004000030200080302000803020008030200087C
:100050000302000803020008DD1600081917000853
:10006000030200080302000803020008A1160008AA
:10007000030200080302000803020008030200084C
:10008000030200080302000803020008030200083C
:100090001D620008030200080302000803020008B2
:1000A0000000000003020008030200080302000829
:1000B000ED480008030200080302000803020008DC
:1000C00003020008030200080302000803020008FC
:1000D00003020008030200080302000803020008EC
:1000E000E3160008030200080302000803020008E8
:1000F0000302000800F002F800F067F80AA090E898
:10010000000C82448344AAF10107DA4501D100F0D2
:100110005CF8AFF2090EBAE80F0013F0010F18BF38
:10012000FB1A43F001031847EC7400000C75000043
:100130000A444FF0000C10F8013B13F0070408BF0D
:1001400010F8014B1D1108BF10F8015B641E05D0AB
:1001500010F8016B641E01F8016BF9D113F0080F60
:100160001EBF10F8014BAD1C0C1B09D16D1E58BFF2
:1001700001F801CBFAD505E014F8016B01F8016B29
:100180006D1EF9D59142D6D370470000002300249C
:1001900000250026103A28BF78C1FBD8520728BF97
:1001A00030C148BF0B607047662907F046810020C8
:1001B00070471FB500F04AFC04000020002106F043
:1001C000CBFDE0601FBD10B510BD00F03FFD114636
:1001D000FFF7EFFF06F070FB00F05DFD03B4FFF7E3
:1001E000F2FF03BC00F0A0FD094880470948004722
:1001F000FEE7FEE7FEE7FEE7FEE7FEE7FEE7FEE7D7
:10020000FEE7FEE704480549054A064B7047000033
:10021000E9480008F5000008B8150020B87500206E
:10022000B8350020B835002053EA020C00F0698090
:100230002DE9F04B4FF00006002B1FBFB3FA83F5FA
:1002400003FA05F424FA05F65E4012BF1643B2FA2B
:1002500082F502FA05F4C5F120051EBF22FA05FC5D
:1002600044EA0C04203556EA044C4FEA144418BF03
:10027000641C4FF000084FF00009904271EB030C32
:1002800039D3002919BFB1FA81F701FA07F6B0FA9C
:1002900080F700FA07F6C7F120071EBF20FA07FC17
:1002A00046EA0C062037B6FBF4FCA7EB0507103F27
:1002B00007F01F0BCBF120060CFA0BFB2CFA06F60D
:1002C00044BFB3460026202FA4BF5E464FF0000B6C
:1002D0005BEA060C08BF4FF0010B19EB0B09ABFBF7
:1002E000027C48EB0608C01B06FB02CC0BFB03CCD0
:1002F00071EB0C01C1E70B46024641464846BDE89A
:10030000F08B13B54FF000004FF00001AFF3008009
:10031000BDE81C40704700000FB41CB50C0007AAD4
:10032000009001D02044401E074B7B446946019059
:10033000069800F06AFB002C03D06946002000F00C
:1003400077FB1CBC5DF814FB0D0700002DE9F0479E
:100350004FF0000A89460446C0F820A02046E16814
:100360008847002876D0252806D0D4E90121904777
:10037000206A401C2062F1E7E1682046002588479A
:10038000C4F81CA006460027C4F818A02A2E09D0DD
:10039000304605F0A1FF38B304EB8708303EC8F8BB
:1003A000186019E059F8041B204604EB870291619C
:1003B000E1688847012F064618D1E069002820DA55
:1003C00025F020051DE0D8F8180000EB800006EBB2
:1003D00040003038C8F818002046E16888470646D3
:1003E00005F07AFF0028EED1012F0AD02E2E08D179
:1003F0002046E16888477F1C0646022F45F020050D
:10040000C4DBA069002803DA404245F00105A06181
:10041000E80701D025F01005B6B1A6F14100192872
:1004200002D8203645F400654A463146204625600C
:100430004D46FFF7B9FE58B1012806D0ED1D25F055
:10044000070000F1080989E704E005F1040985E7E0
:1004500030468AE7206ABDE8F087032A40F2308000
:1004600010F0030C00F0158011F8013BBCF1020FF5
:10047000624498BF11F801CB00F8013B38BF11F876
:10048000013BA2F1040298BF00F801CB38BF00F88D
:10049000013B11F0030300F02580083AC0F008800A
:1004A00051F8043B083A51F804CBA0E80810F5E7EE
:1004B000121D5CBF51F8043B40F8043BAFF30080D1
:1004C000D20724BF11F8013B11F801CB48BF11F846
:1004D000012B24BF00F8013B00F801CB48BF00F816
:1004E000012B704710B5203AC0F00B80B1E81850CE
:1004F000203AA0E81850B1E81850A0E81850BFF40E
:10050000F5AF5FEA027C24BFB1E81850A0E81850AC
:1005100044BF18C918C0BDE810405FEA827C24BF00
:1005200051F8043B40F8043B08BF7047D20728BF8E
:1005300031F8023B48BF11F8012B28BF20F8023BDD
:1005400048BF00F8012B70474FF000020429C0F0AB
:10055000128010F0030C00F01B80CCF1040CBCF1F5
:10056000020F18BF00F8012BA8BF20F8022BA1EB47
:100570000C0100F00DB85FEAC17C24BF00F8012B2C
:1005800000F8012B48BF00F8012B70474FF0000224
:1005900000B5134694469646203922BFA0E80C5079
:1005A000A0E80C50B1F12001BFF4F7AF090728BF54
:1005B000A0E80C5048BF0CC05DF804EB890028BFD0
:1005C00040F8042B08BF704748BF20F8022B11F0F9
:1005D000804F18BF00F8012B704770477047704775
:1005E00070472DE9FF4F0C461E464FF0FF378BB08A
:1005F000D2E90001DDF860800A908A46C1F30A550D
:1006000005B93D46002108464FF00000BAF1000F41
:1006100000F4400005DA00EB80004FF4400101EAED
:1006200050004FEA9059B9F1010F00DDB9460A9820
:1006300050EA4A000ED044F61050A5F2FF3545436B
:100640002F14B8F1000F1ED07542291E1EDDC9F10E
:1006500000021CE0B8F1010F4FF0000001D0302182
:1006600003E0F24305E02154401CB042FBDB30467E
:100670000022002121540B99C1F80880C1E9002013
:100680000FB0BDE8F08FBD1B6D1CDEE74A4600DAF7
:10069000694206A800F064FA06AB93E8070003ABD2
:1006A00083E8070050460A9900F045FB8DE80700F3
:1006B000A0F500501F3800900398002D0ADD42F28B
:1006C0001F014A460844002303A90390684600F02E
:1006D000AEFD09E0A0F500504A461F38002303A9EB
:1006E0000390684600F0B8FD8DE807000004000C98
:1006F00003D04FF0FF30410800E01046B8F1000F82
:1007000003D00022009215461EE0751E05D400F0AD
:10071000A1F9303262556D1EF9D5B3460122084366
:1007200002D000227F1C04E02078302801D1002272
:100730007F1E002A099784D01DE0112D07DA00F0F2
:1007400089F9303262556D1C50EA0102F5D1084337
:1007500002D00098C8B10EE00021681E05E0235CBD
:10076000625C63542254401E491C8142F7DBAB4655
:10077000A81B401E0990002004F80B000B98099A52
:10078000C0F80880C0E9002B7AE711264FF0000876
:1007900057E72DE9F04F88460446D21D22F00701A5
:1007A00091B0D1E90001CDE90A0105F071FD0246E1
:1007B0000B98C00F01D02D2007E02068810701D5DC
:1007C0002B2002E0202101EAC000032A099001D079
:1007D000072A05DB03464146204600F081F90BE17C
:1007E0002078800601D5E06900E00620B8F1650FA9
:1007F000814606D0B8F1660F18D0B8F1670F70D1F6
:1008000031E00020B9F1110F009001DB112301E06C
:1008100009F101030AAA01A90CA8FFF7E2FEDDE92C
:100820000C70002609F10105834647E001204B4684
:1008300000904FF000470AAA01A90CA8FFF7D1FECB
:10084000DDE90DB00C995D46002610B909F10100F3
:100850000D18B9EB050003D4C0F1FF3609F101050D
:10086000A5EB09002BE0B9F1010F01DA4FF0010906
:100870000020B9F1110F0090484601DD112300E07E
:1008800003460AAA01A90CA8FFF7ABFEDDE90C702C
:100890004D4600268346207800070AD4AB4500DA8F
:1008A0005D4601A8012D04DD411911F8011C302914
:1008B00007D04F4502DA17F1040F04DA012082460F
:1008C0000FE06D1EEEE7002F02DCED1B3E4403E05F
:1008D000781CA84200DD7D1CB81B00F1010A4FF016
:1008E00000472078000703D4AA4501DB4FF0FF3A08
:1008F0000021B7F1004F0DF143088DF8431024D0CB
:1009000002202B23002F01DA7F422D230A21021E11
:10091000A0F1010000DC5FB197FBF1FC97FBF1F265
:1009200001FB1C7C17460CF1300C08F801CDEEE7FA
:10093000A8F1010003702188090501D5452100E0D7
:100940006521A0F1010800F8011C09980FA9A1EB8D
:100950000807FF1D00B10120411901EBEA70A169F0
:100960003844081A401EA0612078C00602D42046F0
:10097000AFF30080099828B1D4E901219047206A9B
:10098000401C20622078C00622D52046AFF30080AC
:100990001EE0002E04DBB34502DD01A8805D00E00F
:1009A0003020D4E901219047206A401C2062761C47
:1009B000AAF101005FEA000A0AD100F047F8C06816
:1009C0000168405CD4E901219047206A401C206204
:1009D000281EA5F10105DCDC07E0D4E9012118F8A7
:1009E000010B9047206A401C2062381EA7F10107C6
:1009F000F3DC2046AFF30080032011B041E6000095
:100A000001694A1C02610878704700B58FB0CDE9D2
:100A100001310021059105497944CDE903101146C2
:100A20006846FFF793FC0FB000BD0000E5FFFFFF35
:100A30000A6802F8010B0A607047D1E900239A4264
:100A400002D2531C0B6010707047000000487047C2
:100A50007415002030B5B0F10A024FEA900E71F122
:100A600000034EEA817EB0EB0E0061EB91014FEA8C
:100A7000101E4EEA017E10EB0E0041EB11114FEA01
:100A8000102E4EEA016E10EB0E0041EB11214FEAE1
:100A9000104E4EEA014E10EB0E0041EB1141401892
:100AA00041F100014FEAD00040EA41704FEAD10124
:100AB00010EB80054FEA810444EA907444EB010492
:100AC0006D1944EB0404521BA3414FF0000348BFCF
:100AD0000A3200D530BD401C41F1000130BD00009C
:100AE0002DE9F0411F46044603260168072A01F458
:100AF000006004DB08B116A505E016A503E008B107
:100B000015A500E015A521F010002060A069C01E09
:100B1000A0610FB1401EA0612046AFF300804FB12D
:100B2000D4E9012138469047206A401C2062C01C4D
:100B3000206206E0206AFAE7D4E9012115F8010BEA
:100B40009047761EF8D22046AFF30080BDE8F081D2
:100B50004E414E006E616E00494E4600696E660061
:100B60002DE9F047814616468AB0354878440DC8CD
:100B70008DE80D0032487844801C03AC0DC884E831
:100B80000D0041F69B300844372190FBF1F290FBB9
:100B9000F1F5A5F1800501FB12041B3C02D564426E
:100BA000012000E00020DFF898A080460027FA44EA
:100BB000AAF1BE0A0EE0E0070AD03246684607EB0B
:100BC000470101230AEB810100F046FB8DE8070095
:100BD00064107F1C002CEED1194F7F44AE3F19E00A
:100BE000E80715D007EB04100DF1180A90E80E0085
:100BF0008AE80E00C068F04201D198190890324688
:100C0000012306A903A800F027FB03AB83E8070034
:100C10006D10641C002DE3D14FF00103324669468C
:100C2000B8F1000F03A802D000F001FB01E000F0D2
:100C300013FBC9E90001C9F808200AB0BDE8F08734
:100C40008C6A000000487047541500207546FFF775
:100C5000F9FFAE4605006946534620F00700854679
:100C600018B020B5FFF7CEFABDE820404FF00006DF
:100C70004FF000074FF000084FF0000B21F0070184
:100C8000AC46ACE8C009ACE8C009ACE8C009ACE8C7
:100C9000C0098D46704710B50446AFF3008020466A
:100CA000BDE81040FFF79ABA4FF0013C50F8042B12
:100CB00051F8043B9A4221D1A2EB0C03934313EA6F
:100CC000CC1317D150F8042B51F8043B9A4215D19C
:100CD000A2EB0C03934313EACC130BD150F8042B73
:100CE00051F8043B9A4209D1A2EB0C03934313EA57
:100CF000CC13DBD04FF00000704700BFD01A01BA10
:100D0000B1FA81F101F0180122FA01F0CB40C1F1F2
:100D10002001DBB2C0B2C01A2CFA01F3D11A914300
:100D200011EAC311E6D1704701491820ABBEFEE7B6
:100D30002600020070475FEA400C08BF91F0000FE8
:100D40004FEA8C234FEAC12243EA51514FEA1C502B
:100D500018BF00F5F0404FEA300018BF41F00041E5
:100D60005FEA6C5C00F02980BCF1FF3F08BF40F0F7
:100D700080407047130C06BF12044FF0100C4FF068
:100D8000000C130E04BF12020CF1080C130F04BF69
:100D900012010CF1040C930F04BF92000CF1020C31
:100DA000D30F04BF52000CF1010C11464FF00002AA
:100DB000A0F11F00A0EB0C00704711F0004F08BF1E
:100DC000704731F000413FF4D5AF0B0C06BF09046A
:100DD0004FF0100C4FF0000C0B0E04BF09020CF189
:100DE000080C0B0F04BF09010CF1040C8B0F04BF9E
:100DF00089000CF1020CCB0F04BF49000CF1010C6F
:100E0000CCF12003A0EB0C0022FA03F302FA0CF25F
:100E100041EA030100F10100704720F07F4C80EAB5
:100E2000030023F07F47ACEB070303F57C5300F08E
:100E3000004003F1FF032DE980494FEA154B09B447
:100E40004FEA144325EA0B4E24EA03480FF2042626
:100E500006EB132749083E785FEA320203FB066778
:100E6000C7F5000707FB06F64FEA54374FEAD646A8
:100E700006F1020607FB066CCCF1005C4FEA1C474A
:100E80002CEA074C07FB06F40CFB06F504EB1546B1
:100E90004FEA961634BF00204FF000404FEAD1379A
:100EA00006FB07FC4FEA1C4C0CFB0BF7D21B03FBA9
:100EB0000CF761EB07010CFB0EF7B0EB074072EB90
:100EC00017420CFB08F734BFA2EB0742B2EB074214
:100ED00061EB17414FEA0C444FEA910706FB07FC10
:100EE0004FEA1C4C0CFB0BF7B0EBC74072EB5732D0
:100EF00003FB0CF734BFA2EBC742B2EBC74261EB76
:100F000057310CFB0EF7B0EBC70072EB57720CFBBE
:100F100008F734BFA2EBC702B2EBC70261EB57710F
:100F2000039F4FEA816141EA921104EBCC044FEA3E
:100F3000D1374FEA826206FB07FC42EA90124FEA81
:100F400080604FEA1C4C0CFB0BF7D21B03FB0CF729
:100F500061EB07010CFB0EF7B0EB074072EB174299
:100F60000CFB08F734BFA2EB0742B2EB074261EB80
:100F700017414FEA8C554FEA910704EB9C2406FB7E
:100F800007FC4FEA1C4C0CFB0BF7B0EBC74072EBB5
:100F9000573203FB0CF734BFA2EBC742B2EBC74298
:100FA00061EB57310CFB0EF7B0EBC70072EB5772D9
:100FB0000CFB08F734BFA2EBC702B2EBC70261EB30
:100FC000577115EB4C254FEA816141EA92114FEAC6
:100FD00082624FEAD13742EA901206FB07FC44F1E5
:100FE00000044FEA80604FEA1C4C0CFB0BF7D21B4D
:100FF00003FB0CF761EB07010CFB0EF7B0EB0740AE
:1010000072EB17420CFB08F734BFA2EB0742B2EBBE
:10101000074261EB174115EB1C154FEA813141EA9C
:1010200092414FEA823242EA90424FEA80304FEAE0
:101030000C7644F1000448EA03434EEA0B484FF0B3
:10104000000EB2EB080C71EB030724BF6246394671
:101050004EEB0E0E4FF0000B0018524149414BEB86
:101060000B0BB2EB080C71EB03077BF1000B24BFF9
:10107000624639464EEB0E0E4FF0000B00185241FF
:1010800049414BEB0B0BB2EB080C71EB03077BF107
:10109000000B24BF624639464EEB0E0E51EA0207A2
:1010A00018BF46F0010616EB0E7655F1000254F11A
:1010B000000103D5BDE88901BDE80088BDE88901CC
:1010C000BDE80048B619524141EB0101A3F101030B
:1010D000704780807F7E7D7C7B7A797877767675A5
:1010E0007473727171706F6E6E6D6C6C6B6A6A691D
:1010F0006868676666656464636362616160605FB7
:101100005F5E5E5D5D5C5C5B5B5A5A59595858572F
:101110005756565555555454535352525251515097
:1011200050504F4F4F4E4E4D4D4D4C4C4C4B4B4BEA
:101130004A4A4A4949494848484747474746464630
:10114000454545444444444343434342424242416B
:101150004141002B9C4630D477002BD01CB54FEA80
:10116000370703B44FF010004FF01001BAF1000F31
:1011700006D0BCF1000FDCBF40F0080040F00801D1
:101180004FF000000FBCBDE810400BF1010BBBF1AC
:10119000010F08BF5FEA170722BF12F1010211F128
:1011A00001014FF0004143F1000300F0004043EA29
:1011B00000007047F9D35708D0E746EA064613F116
:1011C000400F4FEA16461FDD13F1200FDFBF164315
:1011D0000A46002120335B42BED0C3F1200746EA15
:1011E000064602FA07F74FEA164646EA0706C3F133
:1011F000200722FA03F201FA07F721FA03F14FF070
:10120000000342EA0702A7E746EA020646EA064664
:101210004FEA164646EA0106BCBF46EA0646360CC9
:101220004FF000034FF000024FF0000194E72DE96A
:10123000804C9A46934670B491E8380007C831EA6A
:10124000400C48BF34EA430C03D5FFF7E6FDFFF737
:1012500080FFF0BCBDE8008C2DE9804C9A46934697
:1012600070B491E8380007C810F0804F08BF13F041
:10127000804F03D100F005F8FFF76BFFF0BCBDE82D
:10128000008C20F07F4780EA030023F07F4C07EBBF
:101290000C03A3F57C5300F00040A3F1FE0392F091
:1012A000000F00F0B38095F0000F00F077802DE97B
:1012B00001494FEA11404FEA144621EA004800FB79
:1012C00006FC24EA064708FB06F607FB08F800FBC5
:1012D00007F718EB06484CEB164C4FEA124B18EB8D
:1012E00007484FEA15464CEB174022EA0B4E0BFB22
:1012F00006FC25EA06470EFB06F607FB0EFE0BFB77
:1013000007F71EEB064E4CEB164C4FF000061EEB9B
:10131000074E4CEB174B18EB0B0840F1000018EB95
:101320000E0B58EB000840F100008F1A4FF000013F
:101330003CBFC943661B14BFB5EB040C00213CBF86
:10134000C943F61B4FEA17444EEA8E0E27EA0445BE
:101350004FEA1C4704FB07622CEA074C05FB07F722
:101360000CFB05F604FB0CFC16EB074642EB1742A0
:1013700016EB0C4642EB1C421BEB060658EB020236
:10138000414146EA9E0601D5BDE80189B6195241A0
:1013900041EB0101A3F10103BDE801894FEA1445C6
:1013A0004FEA114724EA054621EA074C05FB07F4FA
:1013B00006FB07F70CFB06F105FB0CFC11EB0741E4
:1013C00044EB17444FEA124711EB0C4144EB1C4429
:1013D00022EA074C05FB07F206FB07F70CFB06F6B3
:1013E00005FB0CFC16EB074642EB174216EB0C46CE
:1013F00042EB1C456A1854F1000148BF7047B6190A
:10140000524141EB0101A3F10103704795F0000F38
:1014100037D04FEA11424FEA144721EA024624EA44
:10142000074C02FB07F106FB07F70CFB06F402FB77
:101430000CFC14EB074441EB17414FEA154714EB42
:101440000C4441EB1C4125EA074C02FB07F506FB67
:1014500007F70CFB06F602FB0CFC16EB074645EB08
:10146000174516EB0C4645EB1C42121951F10001D1
:1014700048BF7047B619524141EB0101A3F1010386
:1014800070474FEA14454FEA114724EA054621EA1E
:10149000074C05FB07F106FB07F70CFB06F24FF0C4
:1014A000000605FB0CFC12EB074241EB174112EB67
:1014B0000C4251EB1C4148BF7047921841EB0101AF
:1014C000A3F101037047000070B50446006801688D
:1014D000C943490621D4816821F00101816001F0EE
:1014E0001DF8054614E000BF01F018F8401B022863
:1014F0000ED920680068C043400609D4E06C40F073
:101500001000E064206D40F001002065012070BDF6
:1015100020680068C0434006E6D5002070BD10B5C5
:101520000146406AC26C12F0500F05D0406C026B4D
:10153000BDE8104008461047C16C41F40071C16419
:1015400001688A6812F0405F18D190F82420AAB987
:101550000A6B12F0F87F02D08A6852050ED44A68EE
:1015600022F020024A60C16C21F48071C164C16C18
:10157000C90403D4C16C41F00101C16400F078F9E1
:1015800010BD10B5406AC16C41F04001C164016DED
:1015900041F00401016500F001FA10BD10B5406A88
:1015A00000F078F910BD0000F8B50026044600965A
:1015B00000680168C94349062FD5816841F00101DF
:1015C0008160174817490068B0FBF1F000EB40005C
:1015D00000E0401E00900028FBD100F09FFF054670
:1015E00016E000BF00F09AFF401B022810D92068C7
:1015F0000068C04340060BD5E06C40F01000E0648A
:10160000206D40F00100206584F848600120F8BD9D
:1016100020680068C0434006E4D40020F8BD000004
:10162000B400002040420F00FEE700207047002079
:101630007047000010B500220449054803F04CFB38
:101640000449034803F042FB002010BD600C002059
:10165000DC0300207808002070B50C4605460146E2
:101660000C4803F033FB0B4803F014FB80210A48BD
:10167000FEF76AFF2478294622460748FEF7EDFE6A
:1016800021462846FEF760FF044800F0C7FC002012
:1016900070BD0000DC0300205A0300204000002041
:1016A000014800F0E5BB00002002002030B590F8B2
:1016B000404004F01C050124AC40C56B6C6004681C
:1016C00063604368102B036803D099600068C260B0
:1016D00030BD9A600068C16030BD7047012000F0E5
:1016E000EDBD10B54FF4806000F0E8FD4FF40060F0
:1016F00000F0E4FD4FF4805000F0E0FD4FF40050A6
:1017000000F0DCFD4FF4804000F0D8FDBDE8104053
:101710004FF4004000F0D2BD014907200860704737
:101720001404014072B6FEE7F8B50024009490F866
:1017300048202546012A12D0012280F848204A6814
:101740001F23072A0DD20668376C521E02EB820255
:1017500093409F430B6893401F43376435E002205A
:10176000F8BD0D2A0BD20768FE6BD21F02EB820276
:1017700093409E430B6893401E43FE6325E0132A6B
:101780000BD20668B76B0D3A02EB820293409F437F
:101790000B6893401F43B76317E00668192A0AD203
:1017A000776B133A02EB820293409F430B6893409E
:1017B0001F43776309E0376B193A02EB82029340CB
:1017C0009F430B6893401F4337630A6807230A2A25
:1017D0000AD20668776902EB420293409F438B6806
:1017E00093401F4377611CE0142A0BD207683E69BF
:1017F0000A3A02EB420293409E438B6893401E4399
:101800003E610EE01A2A0BD80768FE68143A02EB14
:10181000420293409E438B6893401E43FE6000E06B
:1018200000BF0A68102A01D0112A17D10D4A136887
:101830001B0213D4136843F40003136009681029D2
:101840000CD10949094A0968B1FBF2F101EB8101A8
:10185000490000E0491E00910029FBD180F8485062
:101860002046F8BD04270140B400002040420F008C
:101870000648074902888A804288CA8082880A818D
:10188000C2884A8100898881704700005003002087
:10189000000000207047000070B504000BD0E06C21
:1018A00040F00200E0642046FFF70EFE06004FF015
:1018B000000502D065E0012070BD21686FF01F00B7
:1018C000086020684168314A1140416020688168A1
:1018D0002F4A1140816000BF2068C1686FF3140176
:1018E000C1602068016901F04041016120684169DF
:1018F00001F040414161206881696FF30B01816112
:101900002068C1696FF30B01C1612068016A6FF340
:101910000B0101622068416A6FF30B01416220688C
:10192000816A6FF30B0181622068C16A6FF30B015A
:10193000C1622068016B174A114001632068416B46
:1019400001F0404141632068816B01F040418163B7
:101950002068C16B01F04041C1632068016C01F057
:10196000404101642068416C6FF3150141640A48ED
:10197000016821F400010160204600F0E1F82565CE
:10198000E56484F84850304670BD000000003CF823
:101990008CF0808000800FFE04270140704700001B
:1019A000F8B504004FF0000503D0E06C002610B13C
:1019B00010E00120F8BD26655C4884F848600168A5
:1019C00041F001010160006800F001000090204634
:1019D00000F0D2F8E06CC0067AD4E06C20F48850B5
:1019E00040F00200E06452480168626821F440312E
:1019F000114301606169E0684FF40073084394F893
:101A00003C2093FAA3F3B3FA83F3216A9A4011437B
:101A10000843022194F8242091FAA1F1B1FA81F14E
:101A200002FA01F10843616B102902D0A36B19433C
:101A30000843236819684FF48077C943490629D5BC
:101A4000A169D4F81CC00843A168D4F810E041EAA9
:101A50000C01BE450CD0BEF1010F09D04FF0000CB7
:101A600041EA0C0194F82CC0BCF1010F02D00AE04D
:101A7000BC46F5E76AB3E26C42F02002E264226DF4
:101A800042F0010222655A68DFF8A8C002EA0C029F
:101A90000A435A6021688A68274B1A4002438A60C9
:101AA0002169B94224D0012922D021680A6B22F091
:101AB000F8720A6321688968204A1140814227D15F
:101AC0002665E06C20F0020040F00100E0642AE0AE
:101AD00028E0FFE74FF4604C226B9CFAACFCBCFAA8
:101AE0008CFC521E02FA0CF20A4342F40061CAE76F
:101AF00021680A6B4FF0F87722F0F873A26A97FA20
:101B0000A7F7B7FA87F7521EBA4013430B63D1E722
:101B1000E06C20F0020040F01000E064206D40F026
:101B20000100206501252846F8BD0000203802404C
:101B300004270140FF16FCFC8DF1FFC0FEFF80BFB3
:101B400010B504460068094988420DD1084801686B
:101B500021F4007101600F21064800F0BBFA606CAF
:101B6000BDE8104000F058B910BD0000002401404D
:101B7000203802400000024070B586B005461421AE
:101B80006846FEF703FD1C492868884232D11B488D
:101B9000016841F400710160006800F40070059074
:101BA0001648001F016841F001010160006800262D
:101BB00000F0010005900F2000900320CDE9010600
:101BC00069460F4800F086FB0F4C0E48C4E900063A
:101BD0008020C4E902604000206180006061202014
:101BE000C4E90606204600F0A1F908B1FFF79AFD06
:101BF0006C64656206B070BD00240140203802406C
:101C00000000024008600240200200202DE9F0415F
:101C1000044690F8480016460F46012808D00120D7
:101C200084F848002046FFF7BFFC050003D047E0DA
:101C30000220BDE8F081E06C40F20161884340F48D
:101C40008070E06420684068400505D5E06C20F4B1
:101C5000005040F48050E064E06CC1044FF000009C
:101C600004D5216D21F00601216500E0206584F88E
:101C70004800616C13488862616C1348C862616CEB
:101C80001248086321686FF02200086020684168EC
:101C900041F0806141602068816841F48071816019
:101CA000216833463A465831606C00F06DF920687F
:101CB000816811F0405F03D1816841F0804181600B
:101CC0002846B6E71F1500089D1500088315000873
:101CD00070B54379012B1CD0012646710223037194
:101CE00005682B6802F0100440F6FE72A240934390
:101CF000D1E900210A43A2401A432A6001680A6818
:101D0000C023A3409A430A6006710021417108462E
:101D100070BD022070BD70B5040003D0207900258D
:101D200010B105E0012070BD6571204600F008F893
:101D300002202071256101202071002070BD00006B
:101D400010B586B0044614216846FEF71FFC114901
:101D5000206888421CD11048016841F000510160A0
:101D6000006800F0005005900B480838016841F009
:101D7000010101600068694600F001000590302013
:101D800000900320019000200290044800F0A2FA85
:101D900006B010BD0074004024380240000002402C
:101DA00018B5046800940068104421B11430009004
:101DB0000360002018BD0830F9E770B54279012AA8
:101DC0001ED001224271022303710468266801F0CB
:101DD000100302FA03F52E4326600029016811D092
:101DE0000C6804F470153C249C40A54203D14B6858
:101DF00043F002034B60027100214171084670BD3F
:101E0000022070BD0B68C3F383030F2BF3D14B6823
:101E100043F00103EEE7000018B301680A6822F0FE
:101E200001020A601049026814231144B1FBF3F166
:101E3000890001640D49C1630021116090F84020C0
:101E400002F01C0301229A40C36B5A608162C16296
:101E500001634163816380F8211080F820100846F7
:101E60007047012070470000F89FFDBF00600240EE
:101E7000F0B4C16B0C6801680D6890F8402002F066
:101E80001C06042202FA06F3234211D06B070FD579
:101E90000B689B0603D40B6823F004030B6090F8D7
:101EA000401001F01C018A40C16B4A60C16A1DE00C
:101EB000022303FA06F727424FF0000C4FF001020D
:101EC00018D0AF0716D50C68A40605D40C6824F00A
:101ED0000A040C6080F8212090F8401001F01C01E9
:101EE0008B40C16B4B6080F820C0816A00291AD0FA
:101EF000F0BC08470823B340234214D02B0712D567
:101F00000B6823F00E030B6090F84010C36B01F0D8
:101F10001C0102FA01F15960826380F8212080F8E7
:101F200020C0016BE2E7F0BC7047000030B528B379
:101F300008C8134914221944B1FBF2F18900C163A6
:101F400010498163022141771A6847F6F0718A438C
:101F5000D0E900142143D0E902452C432143046910
:101F600021434469214384692143114319600021BD
:101F70004163012242770177084630BD012030BD20
:101F8000F89FFDBF0060024070B5044690F8200045
:101F9000002501280CD0012084F8200094F821604D
:101FA0000020012E06D084F820000225284670BDAE
:101FB000022070BD022684F82160A06320680668B4
:101FC00026F0010606602046FFF770FBE06A002855
:101FD0002068016802D041F00E0106E021F0040102
:101FE00001602068016841F00A0101602068016811
:101FF00041F001010160D9E770B5044600F08EFAA6
:102000000546601C02D004484068044400F086FA8B
:10201000401BA042FAD370BDA8000020007800F059
:102020001F010120884001490860704710040140E9
:1020300030B580B179B10A6802600B68012003F005
:102040001F0290409B0126D50B7ADC071C4B1C68B5
:1020500003D0044302E0012030BD84431C600B7AAE
:102060009C07184B1C6801D5044300E084431C60A6
:102070000B68C3F34163032B0DD1134B22F0030410
:102080001C44A3689207150F0F22AA409343CA6805
:10209000AA401A43A2600A79D3070C4A136801D0F8
:1020A000034300E08343136009798A0708490A68FB
:1020B00001D5024300E082430A60002030BD0000E9
:1020C000080401400C0401400000014000040140EC
:1020D000040401402DE9F84F00230126DFF814C164
:1020E0000F2780E006FA03F414EA01027AD023F005
:1020F00003056544AA46D5F808909D074FEA157E6A
:1021000007FA0EF505EA090B00953B4DA84202D1EE
:102110004FF0000819E0394DA84202D14FF00108F4
:1021200013E0374DA84202D14FF002080DE0354DC3
:10213000A84202D14FF0030807E0334DA84202D174
:102140004FF0040801E04FF0050808FA0EF8D845F2
:1021500024D1DFF8B880D8F8009029EA0209C8F83D
:10216000009008F10408D8F8009029EA0209C8F89C
:10217000009008F10408D8F8009029EA0209C8F88C
:10218000009008F10408D8F800509543C8F80050B2
:10219000009ADAF808509543CAF80850D0F8008041
:1021A0004FEA4309032202FA09F228EA0208C0F8BA
:1021B0000080DD0800EB8505AA46D5F820804FEAAF
:1021C00043794FEAD96907FA09F528EA0508CAF8F8
:1021D0002080C5689543C5604568A543456084680F
:1021E000944384605B1C31FA03F27FF47BAFBDE85B
:1021F000F88F00000000014000000240000402408F
:1022000000080240000C024000100240000401409F
:102210002DE9F04101264FF480610027244AB51EC4
:10222000244C884211D1104600F06EF928B9A069FB
:10223000002808D0A761266134E0A069012802D0F7
:102240002561C4E90556BDE8F0814FF4006188427C
:102250000AD1104600F058F90028EED1A0690028F4
:10226000F1D00220A7611CE04FF4805188420AD1CE
:10227000104600F049F90028DFD1A0690028E2D01B
:102280000320A7610DE04FF400518842DBD11046D6
:1022900000F03AF90028D0D1A0690028D3D004205A
:1022A000A7612061BDE8F041034801F0B3BB000025
:1022B0000004024000000020CC020020044910B5B8
:1022C0000A68024202D00860FFF7A2FF10BD0000BA
:1022D000140401402DE9F04FDFF80C92002209F1BF
:1022E000040A012503240AF1040B85B00F260BF123
:1022F000040EF0E005FA02F71CEA07037ED091F81D
:1023000004C00CF0030CBCF1010F02D0BCF1020FB1
:1023100026D1D0F808C0CDF800C04FEA420C04FA2C
:102320000CF8CDF810C0DDF800C02CEA080CCDF890
:1023300000C0D1F80C80DDF810C008FA0CF8DDF808
:1023400000C048EA0C08C0F80880D0F804C02CEAA5
:10235000070C0F79C7F30017974047EA0C0747604F
:102360000F79FF43BF070ED0C7684FEA420804FA4F
:1023700008FC27EA0C07D1F808C00CFA08FC4CEA64
:10238000070CC0F80CC00F7907F00307022F15D116
:10239000D70800EB870702973F6A4FEA427C4FEA73
:1023A000DC6806FA08FC27EA0C07D1F810C00CFA22
:1023B00008FC4CEA070C029FC7F820C007684FEAE8
:1023C000420804FA08FC27EA0C0791F804C00CF054
:1023D000030C0CFA08FC4CEA070CC0F800C04F686C
:1023E00017F4403F76D0414FD7F800C04CF0010CB5
:1023F000C7F800C03F6807F0010700E06AE00097F7
:102400003B4F22F0030C67440297BF684FEA827C7F
:102410004FEA1C7806FA08FC27EA0C07DFF8D4C05C
:10242000604502D14FF0000C1DE0DFF8CCC06045E4
:1024300002D14FF0010C16E0DFF8C0C0604502D1B8
:102440004FF0020C0FE0DFF8B8C0604502D14FF04A
:10245000030C08E0DFF8ACC0604502D14FF0040C7B
:1024600001E04FF0050C0CFA08FC4CEA070C029F47
:10247000C7F808C0D9F80070CC46D1F804809F4353
:102480005FEAC83800D51F43CCF80070DAF8007056
:10249000D446D1F804809F435FEA883800D51F43B3
:1024A000CCF80070DBF80070DC46D1F804809F4364
:1024B0005FEAC82800D51F43CCF80070DEF8007032
:1024C000F446D1F804809F435FEA882800D51F4373
:1024D000CCF80070521C0B689C46D3407FF40AAFC6
:1024E00005B0BDE8F08F0000000401402038024034
:1024F00000000140000002400004024000080240C9
:10250000000C0240001002400069084000D0012089
:1025100070470AB1816170470904FBE70148806890
:1025200070470000A800002070B5040025D094F882
:102530003D00002520B984F83C50204600F04EF9BB
:10254000242084F83D002068016821F00101016029
:102550002068016841F4004101602068016821F4AD
:102560000041016000F066FF4D4A6168914201D868
:102570004C4900E04C49884201D2012070BD4B49D2
:102580002368B0FBF1F15E6826F03F060E435E6003
:102590006368934206D94FF4967359434FF47A73A4
:1025A000B1FBF3F12368491C1E6A26F03F06314354
:1025B00019626168914210D84900401EB0FBF1F2E7
:1025C000521CC2F30B02042A01D2042022E0B0FB09
:1025D000F1F0401CC0F30B001CE0A268F2B301EB69
:1025E000C10303EB0116431EB3FBF6F35B1C43F47C
:1025F00080431B0549D092B301EBC10202EB0111EC
:10260000401EB0FBF1F0401CC0F30B0040F48040D2
:1026100040F400402168CA694CF6FF739A431043A6
:10262000C861D4E9071001432068026822F0C002A3
:1026300011430160D4E9030101432068826848F234
:10264000FF339A4311438160D4E9050108432168AF
:10265000CA6822F0FF021043C86001E00EE016E0F5
:102660002068016841F0010101602564202084F8A0
:102670003D00256384F83E50002070BD01EB41060B
:10268000431EB3FBF6F35B1CB3E70120C2E701EB8B
:102690004101401EB0FBF1F0401CC0F30B00B7E756
:1026A000A086010080841E0000093D0040420F000A
:1026B0002DE9F84F1F4690468A460446DDF82890DB
:1026C000FFF72CFF054694F83D0020287FD1192301
:1026D000012240492046009501F0D0FC002876D127
:1026E00094F83C00012872D0012084F83C00206856
:1026F0000168C90703D1016841F001010160206848
:10270000016821F400610160212084F83D0010205F
:1027100084F83E0000262664C4F824806785608D16
:1027200020852D48E0622B464A465146204601F05E
:1027300031FC90B9206841698069009036E02A46F2
:102740004946204601F019FD50B1206C042804D1FF
:102750002068016841F4007101600120BDE8F88F34
:10276000606A216800780861606A401C6062618D5F
:10277000491E6185218D491E89B2218522685369D0
:10278000DB435B070BD451B100781061606A401CD9
:102790006062608D401E6085208D401E20852A4627
:1027A0004946204601F044FC0028CED1208D002867
:1027B000C5D154F83D0B016841F40071016020203F
:1027C00004F81E09E67766770020C7E7FFE70220D6
:1027D000C4E70000020010000000FFFF10B586B043
:1027E000044614216846FDF7D1FE1349206888424B
:1027F00020D11248016841F0020101600068694679
:1028000000F002000590C0200090122001900120ED
:10281000029003200390042004900948FFF75AFD1A
:1028200006480830016841F400110160006800F4B6
:102830000010059006B010BD005400401C38024046
:102840000004024002488168426811448160704778
:10285000A800002010B50024032000F079F80F2014
:1028600000F008F808B1012401E000F025F8204646
:1028700010BD000070B50E4E05460024706898B17A
:102880004FF47A71B1FBF0F00A490968B1FBF0F03E
:1028900001F036F840B9102D06D200222946501E0C
:1028A00000F036F8356000E00124204670BD0000DD
:1028B000A8000020B40000200D4808B5016841F0D0
:1028C00000410160016801F000410091011F0A68A8
:1028D00042F001020A60096801F0010100910168FB
:1028E00041F080510160006800F08050009008BD08
:1028F00024380240002809DB00F01F02012191402A
:102900004009800000F1E020C0F80011704700008D
:10291000F0B40E4B1B680C46C3F30223C3F107054A
:10292000042D00D90425191D072901D2002300E038
:10293000DB1E012606FA05F1491E214099409E4002
:10294000761E16403143F0BC03F0B6BC0CED00E03F
:10295000064900F0070208684FF6FF03184040EAF6
:102960000220034A10430860704700000CED00E0AD
:102970000000FA0510B50C0607D501F0070101EBC0
:10298000810100EBC100283005E001EB810100EB83
:10299000C10000F5B47099B232B101220273018115
:1029A000190C4181002010BD00220273C180F9E79B
:1029B00005480129416803D021F0010141607047B9
:1029C00041F00101FAE700000000014001EB810243
:1029D00000EBC202D0F8E802D26B02F06CBB01EB54
:1029E000810200EBC202D0F8E802D2F87C2102F0AA
:1029F000C5BB70B504460B0601F0070000EB800173
:102A000004EBC1014FF001024FF0000503D581F83E
:102A10002920283103E081F8695101F5B47108706B
:102A200094F8A802012808D084F8A822206802F0AF
:102A3000DFFF84F8A852002070BD022070BD70B581
:102A4000044601F00F006268904201D9012070BD78
:102A50000B0601F0070000EB800104EBC1014FF011
:102A600001024FF0000503D581F82920283103E049
:102A700081F8695101F5B4718D70087094F8A8025D
:102A8000012808D084F8A822206803F04AF884F8C6
:102A9000A852002070BD022070BD2DE9F05F0468CF
:102AA0005FEA424C0B788D69B4F850C04FF00006D5
:102AB0004BF68F7948F2800A48F68F7B48F2C00EB9
:102AC0004FF480672AD54FF0020808EBC308C444CE
:102AD00007EB4C07E45BC4F30904A54203D32D1BA9
:102AE0008D6101D00BE08E61066836F8235005EA4F
:102AF000090585F4005545EA0A0526F823505206D3
:102B000009D50D78036833F8252002EA0B0242EA62
:102B10000E0223F8252084B30A8929E04FF0060825
:102B200008EBC308C44407EB4C07E45BC4F3090497
:102B3000A54203D32D1B8D6101D00BE08E61066889
:102B400036F8235005EA090585F4005545EA0A05DB
:102B500026F82350520609D40B78056835F823204F
:102B600002EA0B0242EA0E0225F823202CB14A8920
:102B700049690068234603F05BFB2046BDE8F09FEF
:102B80002DE9F05F054600680C465FEA426C164688
:102B90008B692278B0F850C048F68F774CF28009E4
:102BA0004FF6FF7B4FF4004E4FF4806A4FF0000168
:102BB0007BD54FF0020808EBC208E0440AEB480C52
:102BC00030F80C00C0F30900834211D91B1AA3612D
:102BD0000FD0730407D52E6836F822303B4043EA05
:102BE000090326F8223094F82420012A50D04EE11F
:102BF000A161607810B1012813D01AE02868B0F8FC
:102C00005030184400EB0210B0F8042422F4F842CB
:102C1000A0F80424B0F8042442F40042A0F80424EC
:102C200007E02868B0F85030184400EB0210A0F814
:102C300004146278286812B1012A11D018E0B0F8A3
:102C400050100844217800EB0110B0F80C1421F466
:102C5000F841A0F80C14B0F80C1441F4004105E060
:102C6000B0F850201044227800EB0210A0F80C14A9
:102C700021782846FFF7AAFE7004B8D521782A6883
:102C800032F82100384040EA090022F82100FEE035
:102C9000626902446261E2690244E2612369226A74
:102CA0009A4203D31846111A04E038E084F824103D
:102CB0000AB110462162617811B1012923D02BE0BD
:102CC0002968B1F850201144227801EB021101F279
:102CD000044148B13E280FD84208C30700D0521C17
:102CE0000BEA82220A8017E00A8822F4F8420A805E
:102CF0000A8842F40042F5E74209C30600D1521E99
:102D00004EEA8222EEE72968B1F850201144227879
:102D100001EB0211A1F8040483B22289B3E04FF061
:102D2000060808EBC208E0440AEB480C30F80C0037
:102D3000C0F30900834211D31B1AA3610FD073049F
:102D400007D42E6836F822303B4043EA090326F8C0
:102D5000223094F82420012A50D098E0A1616078B4
:102D600010B1012813D01AE02868B0F85030184488
:102D700000EB0210B0F8042422F4F842A0F8042476
:102D8000B0F8042442F40042A0F8042407E02868C4
:102D9000B0F85030184400EB0210A0F80414627828
:102DA000286812B1012A11D018E0B0F85010084478
:102DB000217800EB0110B0F80C1421F4F841A0F8D0
:102DC0000C14B0F80C1441F4004105E0B0F85020A8
:102DD0001044227800EB0210A0F80C142178284649
:102DE000FFF7F4FD700452D42278296831F82200EC
:102DF000384040EA090021F8220048E062690244B4
:102E00006261E2690244E2612369226A9A4203D361
:102E10001846111A216204E00AB11046216284F8B2
:102E200024106278296812B1012A22D029E0B1F871
:102E300050201144227801EB021101F20C4148B1FB
:102E40003E280FD84208C30700D0521C0BEA82224A
:102E50000A8016E00A8822F4F8420A800A8842F4BE
:102E60000042F5E74209C30600D1521E4EEA822213
:102E7000EEE7B1F850201144227801EB0211A1F8DD
:102E80000C04628983B26169286803F0EDF9217846
:102E90002A6832F8210048F6BF73184080F03000ED
:102EA00048F28003184322F821000020BDE8F09F7B
:102EB00001F0070101EB810100EBC100D0F88401B2
:102EC00070472DE9F04104460F0601F0070000EBC2
:102ED000800104EBC1014FF001064FF0000503D55E
:102EE00081F82960283103E081F8695101F5B47156
:102EF00008700A61CB704A7802B1C881022B00D1F8
:102F00000D7194F8A802012809D084F8A8622068FD
:102F100002F042FC284684F8A852BDE8F081022065
:102F2000FBE770B50C4601F0070505EB850100EBEA
:102F3000C101C1E95F230022C1F8842181F8692120
:102F400081F8685101F5B4716207006802F03EFE35
:102F5000002070BD70B5044601F007006268904221
:102F600001D9012070BD0B064FF000054FF00102A2
:102F700007D500EB800104EBC10181F8292028313D
:102F800007E001EB810104EBC10181F8695101F512
:102F9000B4718A70087094F8A802012808D084F8E7
:102FA000A822206802F0F9FD84F8A852002070BD24
:102FB000022070BD70B50C4601F0070505EB8501D8
:102FC00000EBC101C1E90F23012281F84C208B6481
:102FD00000234B6481F8292001F8285F620700680C
:102FE00002F0F4FD002070BD10B50446006803F047
:102FF0001BF9000402D5204601F06CFA206803F0AA
:1030000013F940050CD5206830F8441F21F4806185
:103010000180204600F0DAF80021204600F0F1F8A7
:10302000206803F001F9400405D5206830F8441FFA
:1030300021F480410180206803F0F6F8800405D572
:10304000206830F8441F21F400510180206803F00B
:10305000EBF8C00414D5206830F8401F21F00401BB
:103060000180206830F8401F21F0080101802046CF
:1030700000F0BFF8206830F8441F21F4805101802F
:10308000206803F0D1F8000514D5206830F8401FFF
:1030900041F008010180206830F8441F21F40061EC
:1030A0000180206830F8401F41F004010180204673
:1030B00000F0DCF8206803F0B7F8800508D5206838
:1030C00030F8441F21F400710180204600F095F88B
:1030D000206803F0A9F8C00505D5206830F8441F22
:1030E00021F48071018010BD70B586B0040004D059
:1030F00094F8A902002518B107E0012006B070BDC0
:1031000084F8A852204600F043F8032084F8A9026E
:10311000206802F0FFFC002001260EE000EB800199
:1031200004EBC10181F8296001F8280FC881CD7036
:103130000D614D61401CC0B28D6161688142EDD866
:10314000002011E000EB800104EBC10181F869511E
:1031500081F8680181F86B51C1F87851C1F87C5150
:10316000401CC0B2C1F8805161688142EAD8142283
:1031700004F110016846FDF7B5F994E80F0002F07C
:10318000C0FC84F8245084F8A9620020B6E700004F
:1031900008B500680B49884212D10B48016841F418
:1031A000000101600068002200F400000090114658
:1031B0001420FFF7ADFBBDE808401420FFF79ABBD1
:1031C00008BD0000005C00402438024070B5044691
:1031D00080680125022801D0FEF7A4FA2946D4F818
:1031E000E80202F0B0F8D4F8E802BDE8704002F05E
:1031F00070B8D0F8E80202F094B8D0F8E80202F013
:1032000096B810B5044690F8A80201280BD001200A
:1032100084F8A80284F82410206803F01FF8002026
:1032200084F8A80210BD022010BDD0F8E82200F5F5
:103230002C71104602F093B810B5044690F8A8021D
:10324000012810D0012084F8A802206802F0DCFFD9
:1032500001212046FFF7ACFB206802F050FC002063
:1032600084F8A80210BD022010BD000010B504466D
:10327000D0F8E80202F0B2F8A069002804D00348B0
:10328000016841F00601016010BD000010ED00E092
:103290002DE9F0470E46050079D0DFF88481D8F893
:1032A000000000F00100B04214D2012E05D1D8F880
:1032B000001041F00401C8F80010D8F8001021F007
:1032C00001013143C8F80010D8F8000000F00100F7
:1032D000B0425CD12878534C800705D52068A96896
:1032E00020F0F000084320602878C0075CD04D49EA
:1032F0006868083902281AD003281BD009680128F9
:103300001BD08905002966DA216821F003010143F9
:103310002160FFF703F96968074641F28830022906
:1033200014D0032920D0012981462AD038E0096829
:103330008903E7E709688901E4E78907E2E700BF55
:10334000FFF7ECF8C11B494501D926E0814620680A
:10335000C0F381000228F3D126E000BFFFF7DEF8BA
:10336000C11B494501D918E081462068C0F381009E
:103370000328F3D118E000BFFFF7D0F8C11B49457F
:103380000BD82068C0F381000128F5D10CE022E0C1
:10339000FFF7C4F8C11B494502D90320BDE8F087F7
:1033A000206810F00C0FF3D1D8F80010404601F05F
:1033B0000101B14211D9012E03D1016841F004018C
:1033C0000160016821F0010131430160006800F0F3
:1033D0000100B04201D00120E0E72878400705D580
:1033E0002068E96820F4E06008432060287800073E
:1033F00006D52068296920F4605040EAC1002060A9
:1034000000F038F82168084AC1F30311515CC84044
:103410000649086006480068BDE8F047FFF72ABA89
:10342000003C02400838024067750008B4000020E4
:10343000A80000200448054900680968044AC1F34F
:103440000221515CC8407047B40000200838024097
:10345000777500080448054900680968044AC1F303
:10346000C221515CC8407047B400002008380240B7
:103470007775000870B5154D2968154801F00C02E4
:10348000042A0CD04410082A0AD00C2A0AD0281F7B
:103490000068C0F342314FF40040491C884070BDC1
:1034A000204670BD0B4AC1F38343D35CC1F3815204
:1034B0002968521CC90302D5A3FB040101E0A3FB48
:1034C00000010023FCF7B0FE70BD00000838024088
:1034D0000024F4005E7500082DE9F84F04007DD04B
:1034E000FC480168006801F00C0700F48036207881
:1034F000F94DC00741D0082F12D00C2F02D1B6F5DC
:10350000803F0DD06068012811D008B1052818D07F
:10351000286820F480302860286820F4802009E0A2
:103520002868800329D560680028D8D025E028685D
:1035300040F480302860606890B1FEF7EFFF80466D
:103540000AE0286840F480202860F0E7FEF7E6FFF4
:10355000A0EB080064287BD828688003F6D50CE02F
:10356000FEF7DCFF804605E0FEF7D8FFA0EB080081
:103570006428F0D828688003F6D42078DFF85CB39C
:10358000DFF85C8380074FF001094FF0000A35D562
:10359000042F0AD00C2F00D13EB1E068F8B1C8F872
:1035A0000090FEF7BBFF06460BE0286880070BD5AE
:1035B000E068012812D107E0FEF7B0FF801B022867
:1035C000C9D828688007F7D5DBF80010226921F4F4
:1035D000F85141EA0221CBF800100FE077E1C8F87A
:1035E00000A0FEF79BFF064605E000BFFEF796FF32
:1035F000801B0228AFD828688007F7D42078C0063F
:1036000074D53FB1A069E0B3C8F82090FEF786FFFB
:1036100006464AE02868800502D5A069002884D0C3
:10362000206ADBF800105E4601F46041884210D940
:1036300001F0DCF80028BDD13068216A20F4604038
:1036400008433060217F306861F31F6030600FE015
:1036500096E0316821F4604101433160217F306898
:1036600061F31F603060206A01F0C0F80028A1D12A
:10367000216A4FF4004009EB5131884095490968AF
:1036800000E025E0974AC1F30311515CC840964918
:10369000086096480068FFF7EDF800286FD125E034
:1036A000FEF73CFF801B02286AD828688005F7D502
:1036B000DBF80010226A21F460411143CBF80010BE
:1036C000227FDBF8001062F31F61CBF800100DE0E1
:1036D000C8F820A0FEF722FF064604E0FEF71EFF12
:1036E000801B02284CD828688005F7D42078804EAB
:1036F000000722D57F48616981B1C0F80090FEF7CC
:103700000DFF834606E000BFFEF708FFA0EB0B00AD
:10371000022835D830688007F6D50EE0C0F800A042
:10372000FEF7FCFE834605E0FEF7F8FEA0EB0B007B
:10373000022825D830688007F6D4207840076DD558
:103740006B484FF0000B10380068C0000BD468487D
:103750001038016841F08051016000684FF0010BA2
:1037600000F08050009064480168C90514D40168D5
:1037700041F480710160FEF7D1FE009008E08DE019
:1037800079E000BFFEF7CAFE0099401A642872D89B
:1037900059480068C005F5D5A06801280AD008B1CD
:1037A000052811D0306820F480703060306820F433
:1037B000806002E0306840F480703060A068A8B19A
:1037C000FEF7ACFE00900DE0306840F480603060A1
:1037D000F0E700BFFEF7A2FE0099411A41F28830DF
:1037E00081425AD830688005F4D50EE0FEF796FE87
:1037F000009007E0FEF792FE0099411A41F28830EE
:1038000081424AD830688005F4D4BBF1000F05D05E
:1038100037481038016821F080510160606A58B360
:103820000C2F41D00228504605D0C8F86000FEF7A2
:1038300075FE044634E04746C8F86000FEF76EFEA9
:10384000064604E0FEF76AFE801B022825D8286899
:103850008001F7D4D4E90A1001431E48226B0368A3
:1038600023F47D031A4311430160C7F86090FEF70B
:1038700055FE044607E010E040E000BFFEF74EFEB4
:10388000001B022809D828688001F7D536E000BF60
:10389000FEF744FE001B022802D90320BDE8F88F82
:1038A00028688001F4D429E00128F7D0094800688D
:1038B000A26A00F48031914209D1E26A00F47011E9
:1038C000914204D1216B00F44000884216D00120BF
:1038D000E4E70000083802400038024004380240A3
:1038E0000000474267750008B4000020A8000020CF
:1038F0003438024080064742007000400020CDE787
:1039000010B5401EB0F1807F01D3012010BD4FF0F3
:10391000E02460610F21601702F0CEFC0020A0615E
:1039200007202061002010BD70B590F83820012AD2
:1039300026D0012480F83840022280F8392003681C
:103940005A689D6822F070060A6832435A6002681D
:10395000B2F1804F08D00B4B9A4205D00A4B9A42E5
:1039600002D00A4B9A4204D1496825F080031943DA
:10397000916080F83940002180F83810084670BD09
:10398000022070BD00040040000800400008014013
:1039900010B5040003D094F8390010B107E00120FD
:1039A00010BD002084F83800204600F017F80220EF
:1039B00084F83900211D206800F09EFF012084F862
:1039C0003E0084F83A0084F83B0084F83C0084F818
:1039D0003D0084F83900002010BD000008B50068E3
:1039E000B0F1804F12D10A48016841F00101016035
:1039F0000068002200F00100009011461C20FEF734
:103A000087FFBDE808401C20FEF774BF08BD00001A
:103A10002438024090F83910012901D00120704764
:103A2000022180F839100168CA6842F00102CA60B8
:103A30000068B0F1804F08D00949884205D0094993
:103A4000884202D00849884204D1816801F0070108
:103A5000062903D0016841F0010101600020704790
:103A60000004004000080040000801400168CA68E6
:103A700022F00102CA6001680A6A41F211131A4277
:103A800003D10A6822F001020A60012180F839108E
:103A90000020704770B5044690F83800012817D010
:103AA000012584F83850022084F8390020688268A3
:103AB00022F0770222F47F4282600868502830D0DA
:103AC0000DDC20284DD005DC98B310283BD148E010
:103AD000022070BD302844D0402834D139E060281D
:103AE00028D0702806D0B0F5805F2CD0B0F5005FEC
:103AF00029D10AE0CB68D1E90121206800F036FF26
:103B00002068816841F0770109E0CB68D1E90121A3
:103B1000206800F02BFF2068816841F480418160BB
:103B200011E0CA684968206800F032FF502120681F
:103B300007E016E0CA684968206800F03AFF602193
:103B4000206800F01DFF84F83950002084F8380008
:103B500070BDCA684968206800F01AFF40212068DB
:103B6000EFE7226801461046EBE7704770B5044660
:103B7000006801694FF00005C943890715D4C16881
:103B8000C943890711D4E91E01610120207620680C
:103B900080698007204602D0FFF7E7FF04E000F0CD
:103BA00078F8204600F076F8257620680169C94348
:103BB000490717D4C168C943490713D46FF00401FA
:103BC0000161022020762068806910F4407F204641
:103BD00002D0FFF7CAFF04E000F05BF8204600F0D7
:103BE00059F8257620680169C943090716D4C168C8
:103BF000C943090712D46FF008010161042020763F
:103C00002068C0698007204602D0FFF7AEFF04E0BD
:103C100000F03FF8204600F03DF825762068016965
:103C2000C943C90617D4C168C943C90613D46FF084
:103C300010010161082020762068C06910F4407FDF
:103C4000204602D0FFF791FF04E000F022F8204662
:103C500000F020F8257620680169C943C90708D11A
:103C6000C168C943C90704D1891E0161204600F01B
:103C700013F820680169C943490609D4C168C943DA
:103C8000490605D46FF040010161204600F002F9B9
:103C900070BD7047704700002DE9F05F7948FFF76D
:103CA000E5FE794F4FF47076012231463846FEF733
:103CB00030FC002240213846FEF72BFC734C0125D6
:103CC000DFF8CCB120694FF480684FF400694FF4FD
:103CD000805A012806D0022806D0032806D00428DE
:103CE00006D00CE0414605E0494603E0514601E0BC
:103CF0004FF400515846FEF707FC00B965610122F8
:103D000031463D463846FEF704FC00228021284615
:103D1000FEF7FFFB20690227012806D0022806D003
:103D2000032806D0042806D00CE0414605E04946A9
:103D300003E0514601E04FF400515846FEF7E4FB22
:103D400000B96761012231462846FEF7E2FB0022F6
:103D50004FF480712846FEF7DCFB20690327012819
:103D600006D0022806D0032806D0042806D00CE08E
:103D7000414605E0494603E0514601E04FF4005159
:103D80005846FEF7C1FB00B967610122314628465B
:103D9000FEF7BFFB00224FF400712846FEF7B9FB87
:103DA00020690427012806D0022806D0032806D05F
:103DB000042806D05FE0414605E0494603E051464D
:103DC00001E04FF400515846FEF79EFB00B96761D1
:103DD0002069012806D0022816D0032826D00428FE
:103DE00036D048E06069012806D0022806D00328B2
:103DF00006D0042806D03EE031203AE0322038E0F8
:103E0000332036E0412034E06069012806D00228E2
:103E100006D0032806D0042806D02CE0342028E061
:103E2000352026E0362024E0422022E06069012887
:103E300006D0022806D0032806D0042806D01AE0AF
:103E4000372016E0382014E0392012E0432010E03B
:103E50006069012806D0022806D0032806D004286D
:103E600006D008E02E2004E0302002E0232000E00D
:103E7000442002F05FFA31462846BDE8F05F002298
:103E8000FEF747BBCC0200200008024000000020E3
:103E900000040240704770B5040004D094F83D005F
:103EA000002510B106E0012070BD84F83C5020468A
:103EB00000F022F8242084F83D002068C16821F435
:103EC0000051C160204600F087FD2068016921F49F
:103ED000904101612068416921F02A014161206817
:103EE000C16841F40051C1602564202084F83D0080
:103EF00084F83E00002070BD10B586B00446142141
:103F00006846FCF743FB14492068884221D11348D6
:103F1000016841F480410160006800F48040059030
:103F20000E48001F016841F0010101600068694608
:103F300000F0010005904FF4C06000900220019055
:103F40000020029003200390072004900448FEF70D
:103F5000C1F906B010BD0000003801402038024011
:103F600000000240FEE701684A69D24352050FD4BF
:103F70006FF480624A61002140F8301F20224273B2
:103F80008173026942F004020261017301207047EB
:103F900000207047F8B50446C06A1E460D46174615
:103FA000082807D0012805D010F5803F02D0206BEB
:103FB000122804D12068016841F480710160134621
:103FC00000224FF001112046009600F057F840B152
:103FD00020680068C00502D54FF4007020640320FB
:103FE000F8BD2069B0F5804F0ED00620216800EAA8
:103FF000D51040F0F000086133463A460B492046A0
:1040000000F070F878B902E005F0FE0000E0E8B2D8
:1040100021680861054933463A46891F204600F069
:1040200061F80028DCD00120F8BD00000800010084
:1040300070B516460D4604460DE02046FFF793FF87
:1040400008B1012070BD681C05D0FEF767FA801B1F
:10405000A84207D835B120684069C0434007ECD476
:10406000002070BD002044F8300F20216173A07340
:10407000216941F0200121612073E2E72DE9F04739
:104080001E4690460D460446C1F30747DDF82090D2
:1040900008E0701C06D0FEF741FAA0EB0900B04220
:1040A0000FD876B12068012F18D0806925EA00006A
:1040B0000004000C14D000214145EAD00020BDE8E6
:1040C000F087002044F8300F20216173A07321692C
:1040D00041F02001216120730120F0E74069E5E70C
:1040E0000121E9E72DE9F0479A4691460E4604463C
:1040F00000254FF02008C1F3074725E020684069FC
:10410000C043400514D42068016841F40071016087
:1041100021686FF480604861256384F83D8084F8ED
:104120003E50206C40F00400206484F83C501FE0B6
:10413000B9F1FF3F08D0FEF7F1F9A0EB0A014945BC
:104140000CD8B9F1000F09D02068012F13D0806975
:1041500026EA00000004000C0BD0CFE744F8305FE3
:1041600084F80D80A573206940F02000206125733C
:104170000120BDE8F0874069EAE770B516460D46B4
:1041800004460DE02046FFF7EEFE08B1012070BDA9
:10419000681C05D0FEF7C2F9801BA84207D835B1CC
:1041A00020684069C0430006ECD4002070BD0020A8
:1041B00044F8300F20216173A073216941F0200180
:1041C00021612073E2E70000F0B500230A243025C6
:1041D00037261F4611E000BFB4EB107F02D905EB74
:1041E000107C01E006EB107C01F813C001EB430CDE
:1041F00000015B1C8CF80170DBB29342ECD3F0BD84
:10420000012901D031B107E0012801D048B103E014
:104210000F2002E0012802D00C2002F06BBA0E2021
:10422000FBE70D20F9E70000FEB500242C480094C0
:1042300001942A49029401604FF40031C0E901144D
:104240004912C0E9034144618461C46101250462EB
:1042500080F824500526866280F82C401021C0E9A1
:104260000D1480F83C50FDF79BFB08B172B6FEE7D9
:1042700006200094CDE9015069461948FDF754FA2B
:1042800008B172B6FEE70224CDE90054694614482D
:10429000FDF74AFA08B172B6FEE7009403246946B6
:1042A0000F480194FDF740FA08B172B6FEE704200A
:1042B000CDE9004069460A48FDF736FA08B172B602
:1042C000FEE71120CDE9000669460548FDF72CFA06
:1042D000002801D072B6FEE7FEBD000000240140B8
:1042E000CC010020094808B5016841F080710160E7
:1042F0000068002200F08070009011460B20FEF74D
:1043000007FBBDE808400B20FEF7F4BA1C3802405A
:104310002DE9F04186B014216846FCF737F93A4898
:10432000016841F020010160016801F02001059160
:10433000016841F001010160016801F0010105918E
:10434000016841F004010160016801F00401059178
:10435000016841F00201016000682C4F00F002008A
:104360000590002240213846FEF7D3F8DFF8A08000
:104370004FF47876002231464046FEF7CAF84020D6
:10438000009001250024CDE9015469463846039484
:10439000FDF7A0FF0096CDE901546946404603941D
:1043A000FDF798FF2D2000904FF40410CDE9010592
:1043B000184E69463046FDF78DFF1220CDE9000406
:1043C000694630460294FDF785FF4FF47C4000902B
:1043D0004FF44410CDE9010569463046FDF77AFFF8
:1043E000002211460620FEF793FA0620FEF782FA15
:1043F000002211462820FEF78BFA2820FEF77AFAD1
:1044000006B0BDE8F08100001C3802400000024008
:10441000000802400004024010B586B0002416488F
:10442000009401940294039404944FF08041059405
:1044300001604FF4FA41C0E901140A21C0E90314F4
:104440004461FFF7A5FA08B172B6FEE74FF4805059
:10445000009069460848FFF71DFB08B172B6FEE7F9
:10446000049404A904480594FFF75EFA002801D0DB
:1044700072B6FEE706B010BDCC02002010B50022D7
:104480000F49104800F0F0FD08B1FDF74BF90E4957
:104490000C4800F0C9FF08B1FDF744F90B49094881
:1044A00000F00CFC08B1FDF73DF9064801F012F8E8
:1044B000002803D0BDE81040FDF734B910BD00005E
:1044C00048000020DC030020940100209800002018
:1044D000FEE7FEE72DE9F84F044640F68F7B48F6ED
:1044E0000F7A4FF002094FF4806874E1B0F844107D
:1044F00011F00F063AD030F8267039047DD530F827
:10450000261001EA0B0141F0800120F8261006EB8D
:10451000860004EBC00595F8740105F5B475002814
:104520006CD0E87802286AD02878226832F8201007
:1045300048F68F73194048F2C003194322F820103F
:104540002878D4F800C03CF82010BCF8502049046A
:104550007ED509EBC000111808EB41003CF80000C3
:104560008005800D009074D02A89D8E0C9062DD42A
:10457000018801EA0A0141F400410180216804F147
:104580002805B1F850202B7809EBC300024408EB52
:104590004200085AC0F309006064E16B0844E0631C
:1045A00000212046FEF712FA94F8240000289CD03F
:1045B000A869002899D194F82400216840F080006F
:1045C000A1F84C00002084F8240004E1018804F5DF
:1045D000B4750A0521D5B0F850202B78062101EBDF
:1045E000C3010A4408EB4201405A04F52C71C0F3A0
:1045F0000903EB61EA88206802E0ACE068E07AE059
:1046000001F016FE2168088800EA0B0040F08000E7
:1046100008802046FEF709FEDDE00904D5D50188B3
:1046200001EA0B0141F0800101802068B0F85020C0
:104630002B78062101EBC3010A4408EB4201405AE2
:1046400083059B0DEB6110D0696971B1EA8801E0C7
:1046500058E056E0206801F0EBFDE969686908441C
:10466000686100212046FEF7BAF920680188090533
:104670002DD4B0F850100844296900F20C4051B113
:104680003E2910D84A08C90700D0521C4FF6FF71C6
:1046900001EA82210FE0018821F4F84101800188BC
:1046A00041F4004107E04A09C90600D1521E4FF407
:1046B000004141EA82210180206801884BF68F7217
:1046C000114081F4405148F280021143018082E0A0
:1046D000D4F800C0BCF850102A78062000EBC200C5
:1046E000014408EB41003CF800008005800D00907B
:1046F0001AD0EA8813E03A4629462046FEF7CDF95B
:10470000009011E0062101EBC000111808EB4100F8
:104710003CF800008005800D009005D06A890346B2
:104720006046696901F084FDE96900980844E86120
:104730006969009808446861A86918B129690098F6
:10474000814204D929782046FEF749F903E0294639
:10475000206801F03BFA38063DD506EB860004EBF5
:10476000C001206830F8262002EA0A0242F4004222
:1047700020F8262091F82B002831032804D018B106
:10478000022824D1F80522D42368B3F850200D78EC
:1047900009EBC500024408EB4200185A8A69C0F3CD
:1047A000090082420CD9121A8A610BD04A6902446C
:1047B0004A61CA691044C861206801F007FA0AE03A
:1047C00000208861E9B22046FEF700F903E03A468E
:1047D0002046FEF7D5F92068B0F8441009043FF5EB
:1047E00085AE0020BDE8F88F7047000038B51C4941
:1047F000002309681B4A11F0F00F23D118491C311E
:104800000C68E500184C03D5216801F4C0540EE093
:104810000D6845F080550D600D6805F080550095D8
:1048200024680D6804F4C05425F080550D60B4F57B
:10483000C05F07D1B0F5404F04D11068012340F0AC
:1048400004001060106820F0010018431060106828
:1048500000F00100984201D0012038BD002038BD91
:1048600008380240003C0240007000407047FDF7ED
:10487000E9BF000010B592B034216846FBF786FE10
:1048800014210DA8FBF782FE1648016821F4C051DF
:1048900041F40061016001200324CDE90040039050
:1048A0001020049002200990C0030A9000010B9090
:1048B000C0000C906846FEF70FFE08B172B6FEE726
:1048C0000F20CDE90D0400200F90109011900121D0
:1048D0000DA8FEF7DDFC002801D072B6FEE712B08D
:1048E00010BD000000700040704700000148FFF755
:1048F0003DB90000CC02002070B502684FF0804640
:10490000154B164CB04203D0984201D0A04205D1BD
:1049100022F070054A682A43B0420CD098420AD06F
:10492000A04208D00E4B984205D00E4B984202D0C0
:104930000D4B984203D122F44073CA681A430B69A5
:1049400022F080021A4302608A68C26209688162AA
:104950000121416170BD00000004004000080040DA
:1049600000080140000C01400010014010B58468AF
:1049700042EA032224F47F440A432243826010BDAA
:10498000826822F070020A4342F00701816070479A
:1049900010B5036A046A24F001040462846924F0F7
:1049A000F00444EA021423F00A020A43846102621A
:1049B00010BD10B5036A23F0100303628369046A13
:1049C00023F4704343EA023224F0A00343EA0111C6
:1049D0008261016210BD00002DE9F04104460068CB
:1049E0000169E26821F44051114301612169A06825
:1049F000E26908436169114322680843D16849F2BA
:104A00000C6399430143D16020684169A26921F494
:104A100040711143416136492068884202D1FEF756
:104A200019FD01E0FEF706FD0246E369642032212C
:104A3000B3F5004F02EBC20303EB021362682BD005
:104A40009200B3FBF2F5B5FBF0F5B3FBF2F66FF0B5
:104A500018077D4306EB8505B3FBF2F601EB051560
:104A6000B5FBF0F5B6FBF0F605F0F00505EB061525
:104A7000B3FBF2F6B3FBF2F2B2FBF0F27A4306EBD1
:104A8000820201EB0211B1FBF0F000F00F0021688F
:104A900028448860BDE8F0815200B3FBF2F6B6FB13
:104AA000F0F6B3FBF2F7B3FBF2F56FF0180C06FB70
:104AB0000CF607EB860601EBC606B5FBF0F5B6FB78
:104AC000F0F62D0106F0F80605EB4605B3FBF2F60D
:104AD000B3FBF2F2B2FBF0F202FB0CF206EB820245
:104AE00001EBC201B1FBF0F000F00700CFE70000DE
:104AF000003801402DE9F041D0F89832D0F89022EA
:104B0000CAB101EB810500EB85040026E7693FB1DE
:104B100003EBC5039B6BB7FBF3F503FB157323B1E5
:104B2000C2F814620020BDE8F08100231A46E66155
:104B300000F05DFCF6E70220F5E770B50546D0F819
:104B4000904200F05CFBC4F80C02D5F8900248B12A
:104B5000D5F89412D4F80402CA6804F5037190479A
:104B6000002070BD022070BD70B504460026812172
:104B700000F098FA002501212046E56200F092FA43
:104B800082212046C4F8585100F08CFA2564D4F8EC
:104B9000900248B1D4F8940204F524744068804728
:104BA000206800F0F4FD2560304670BD10B5D0E9F6
:104BB000A44159B194F80002FF2807D08B6894F8FB
:104BC000012221469847FF2084F80002002010BDF2
:104BD0000A21018000487047BC0000204321018069
:104BE000004870470C0100204321018000487047B5
:104BF000C800002043210180004870475001002078
:104C00002DE9F04104460026007C4FF40077012591
:104C100090B3402302228121204600F045FB40232F
:104C2000E56202220121204600F03EFB0823032218
:104C300082212046C4F8585100F036FB4FF407702B
:104C4000256400F0A5FDC4F89002F8B10546D4F83B
:104C50009402006880470020C5F81402C5F81802C5
:104C6000207CD5F8042298B140230121204600F091
:104C700027FB3046BDE8F081FFE73B460222812159
:104C8000204600F011FB3B46E562CAE70126F0E74B
:104C90003B46EAE710B5D0F8901269B1027C002AD1
:104CA000D1F8042205D04023012100F009FB0020A7
:104CB00010BD4FF40073F7E7022010BD024602203A
:104CC000002902D00020C2F894127047D0F8900258
:104CD000C0F8041200207047D0F89002C0F81022EB
:104CE000C0F80812002070472DE9FC410546D0F8B5
:104CF000907200208DF80000ADF804000646087898
:104D00000C4610F0600121D020293BD1E288AAB1E5
:104D10000006607807D5D5F894128B683946984715
:104D2000E288394626E087F80002A07987F8010278
:104D3000E2883946284600F04FF828E0D5F894126A
:104D4000607800228B682146984720E0607820B187
:104D50000A2809D00B2815D110E095F87402032811
:104D600010D1022201A905E095F87402032809D1A7
:104D700001226946284600F049F808E095F87402D7
:104D8000032804D02146284600F01BF802263046AE
:104D9000BDE8FC8110B5D0F88C2252689047002005
:104DA00010BD134610B50A46002100F089FA002014
:104DB00010BD134610B50A46002100F018FB002074
:104DC00010BD10B50446802100F0F6FA2046BDE87B
:104DD0001040002100F0F0BA10B50323C0F84821BC
:104DE000C0F86C32C0F84C2113460A46002100F08E
:104DF00067FA002010BD10B505210023C0F86C1221
:104E00001A46194600F05CFA002010BD10B50223C6
:104E1000C261C0F86C32026213460A46002100F0FB
:104E2000E6FA002010BD10B504210023C0F86C1272
:104E30001A46194600F0DBFA002010BD10B50A46EC
:104E4000024903A000F0E0F8004810BD78060020F9
:104E500043444320436F6E66696700001220088058
:104E6000004870476800002010B50A46024903A0B8
:104E700000F0CAF8004810BD7806002043444320E3
:104E8000496E7465726661636500000004200880E5
:104E9000004870476400002010B50A46024903A08C
:104EA00000F0B2F8004810BD7806002053544D6958
:104EB00063726F656C656374726F6E696373000013
:104EC00010B50A46024903A000F09EF8004810BD44
:104ED0007806002053544D33322056697274756140
:104EE0006C20436F6D506F727400000010B51A2073
:104EF00008800948D0E91414806D081809D00822E8
:104F00000649FFF761F90549042210312046FFF7F1
:104F10005BF90248801E10BD0000F81F7E000020D3
:104F2000F8B5044648880D46010A08294BD2DFE847
:104F300001F04A0409174A4A4048D4F88812207CF4
:104F40000A6832E0207C02260028D4F88C0205D0C2
:104F5000C16A684688470146467041E0816AF8E7C1
:104F6000C0B206282FD2DFE800F003080D12171C8C
:104F7000D4F88812207C4A6817E0D4F88812207C84
:104F80008A6812E0D4F88812207CCA680DE0D4F850
:104F90008812207C0A6908E0D4F88812207C4A69CB
:104FA00003E0D4F88812207C8A696946904701465C
:104FB00016E0207C38B9D4F88C02416B68468847EB
:104FC000F5E7207C20B129462046FFF7FAFEF8BD20
:104FD000D4F88C02016B6846884701460720487068
:104FE000BDF8000048B1EA8852B1824200D90246B9
:104FF000ADF800202046FFF709FFE8880028E6D139
:105000002046FFF710FFF8BD70B5002300281ED022
:105010000446002502E06D1CEDB2641C2678002ECB
:10502000F9D1022404EB450414801278CA545B1CA5
:105030000322CA5400245B1C06E0CA545B1CDAB28B
:105040008C54521CD3B2401C0278002AF5D170BD9A
:1050500001004FF0000004D0012901D0022901D045
:10506000022070470120704710B580B1D0F88C3213
:1050700013B10023C0F88C3209B1C0F888120121A5
:1050800080F87412027000F0BFF8002010BD0220FA
:1050900010BD10B5D0F89802FDF7D1FCBDE8104066
:1050A000FFF7D6BF10B5D0F89802FDF7A2FCBDE817
:1050B0001040FFF7CDBF2DE9F0411746044651B12E
:1050C000D4F88C0242691AB194F87402032851D0C2
:1050D0000220BDE8F081D4F86C32002504F1140000
:1050E000022B03D0042B3AD0C3B33CE0D0E90363D6
:1050F0009E4207D9F11AC1608AB239462046FFF7AD
:1051000058FE12E08068B0FBF3F103FB110199B97E
:10511000984211D3D4F8701288420DD20022114661
:105120002046FFF746FEC4F8705200231A4619467F
:10513000204600F0C5F816E0D4F88C02C16829B109
:1051400094F87402032801D1204688478021204624
:1051500000F032F92046FFF74EFE04E0FFE7802121
:10516000204600F029F994F87802012804D184F847
:10517000785201E0204690470020AAE770B5154616
:10518000044649B1D4F88C0282691AB194F87402C9
:10519000032830D0022070BDD4F86C1204F5A07042
:1051A000032902D005291ED027E0D0E903218A4235
:1051B0000BD9531AC3600846834200D303469AB200
:1051C00029462046FFF7EDFD17E0D4F88C0201696F
:1051D00029B194F87402032801D12046884720465B
:1051E000FFF721FE09E000200146C4F86C022046CA
:1051F00000F0E2F801E020469047002070BDD0F8B2
:105200009802FDF755BE000010B504461C481D4924
:10521000C0F8E842C4F89802016008214160022108
:1052200081600161002181610162FDF75DFF08B1CC
:10523000FCF778FA0022D4F898021823114604F5F6
:105240002674FDF797FB5823002280212068FDF784
:1052500091FBC023002281212068FDF78BFB4FF4D6
:105260008873002201212068FDF784FB4FF48073CE
:10527000002282212068FDF77DFB002010BD000088
:1052800068120020005C00400A0601F07F01D0F89F
:10529000980201EB810100EBC10002D590F82A00D1
:1052A000704790F86A01704710B51C461346D0F855
:1052B00098022246FDF705FEBDE81040FFF7C8BE84
:1052C00010B5D0F89802FDF72CFEBDE81040FFF7AE
:1052D000BFBE70B50022044640231146FFF7E4FF2D
:1052E00040260125C4F85061334600228021204623
:1052F000C4F84451FFF7D8FF6662A56184F8745280
:105300000020C4F86C026060C4F87C02D4F89002FB
:1053100028B1D4F88C020021426820469047002032
:1053200070BD90F8751280F874120020704710B5A7
:1053300090F87412032904D1D0F88C12C96901B114
:105340008847002010BD01740020704710B5D0F8C8
:105350009802FDF756FFBDE81040FFF779BE70B523
:10536000044600F52070054600F04AF80120C4F814
:105370006C02B4F88602C4F8700294F8800210F04F
:105380001F010AD001290DD0022910D000F08001A0
:10539000204600F011F8002070BD2946204600F09C
:1053A0009EF8F8E72946204600F0CAF9F3E72946B7
:1053B000204600F01DF9EEE710B5D0F89802FDF791
:1053C000C9FDBDE81040FFF743BE10B5D0F8980204
:1053D000FDF732FFBDE81040FFF73ABE90F87412B7
:1053E00080F87512042180F874120020704710B5FF
:1053F000D0F89802FDF7DEFDBDE81040FFF728BEAB
:105400000A7802704A7842708A78CB7802EB0322DD
:1054100042800A794B7902EB032282808A79C9792A
:1054200002EB0121C18070470246002011B1C2F891
:105430008C1270470220704710B5D0F88C220224DD
:105440001AB11268904700B90024204610BD000030
:1054500070B50E461E4D897804462970012931D851
:1054600094F8740202280BD003280FD0314620464E
:10547000FFF7A7FC29782046BDE87040FFF78ABCFB
:10548000D9B10320616084F8740209E071B16068E9
:10549000884212D0C1B22046FFF77CFC29786160B7
:1054A0002046FFF7C9FF02280CD006E0022084F84E
:1054B000740220466160FFF76DFC2046BDE8704035
:1054C000FFF7B1BC31462046BDE87040FFF779BC1C
:1054D000B800002010B5FFF778FF002010BD2DE9BF
:1054E000F0410A78002612F0600208D0202A01D08C
:1054F000402A70D1D0F88C22926890476DE04B78AA
:10550000002201250A2B66D2DFE803F0405D6557D3
:10551000650805652C29FFF703FD5EE004468888D1
:10552000D8B9C888C8B94888802816D200F07F0743
:1055300094F87402032810D084F876723946204615
:10554000FFF704FF2046FFF76EFC1FB1022084F82E
:10555000740242E084F874523FE020463BE0FFF7DB
:1055600077FF3AE0CB88012B35D190F87432012BCC
:1055700004D0022B02D0032B2DD104E08260012243
:1055800000F1080116E00122011D13E090F87422D9
:10559000012A03D0022A01D0032A1CD1CA88022A78
:1055A00019D1C560D0F87C1209B10321C160022273
:1055B00000F10C01FFF72AFC0FE0498801290CD10A
:1055C000C0F87C5211E090F87432012B08D0022B05
:1055D00006D0032B04D0FFF7F4FB3046BDE8F08182
:1055E00049880129F9D1C0F87C22FFF71CFCF4E7B7
:1055F0002DE9F0410A46044610780027097910F099
:1056000060030AD0202B01D0402B50D1D4F88C025B
:1056100011468368204698478FE0C0F34110012867
:1056200006D05078D0B301282AD003283FD107E014
:10563000D4F88C02114683682046BDE8F041184733
:1056400094F87402022802D0032872D10AE071B3E0
:1056500080296ED02046FFF7AFFE80212046FFF75D
:10566000ABFE6AE0508838B931B1802904D0D088C7
:1056700010B92046FFF7A0FE2046FFF7D4FB5CE000
:1056800094F874020228E2D0032852D1508898BBC3
:105690004806F1D02046FFF7FCFCEDE7FFE794F861
:1056A00074020026022803D0032842D112E040E011
:1056B00009B180293DD1080601F07F0000EB800090
:1056C00004EB800101D5143101E001F5A071022243
:1056D0000E602AE0080601F00F0000EB800004EBEA
:1056E00080000AD5806920B301F07F0000EB8000C4
:1056F00004EB800514350BE01FE0D0F84401C0B185
:1057000001F07F0000EB800004EB800505F5A0753B
:1057100041B1802906D02046FFF7B6FD10B1012027
:10572000286000E02E60022229462046FFF76EFB2B
:1057300003E011462046FFF744FB3846BDE8F08100
:1057400070B5054608780C4610F0600003D020289C
:1057500001D0402816D195F87402012803D0022800
:1057600001D003280ED1207901280BD8D5F88C025E
:10577000826828469047E188014306D12846FFF712
:1057800052FB02E02846FFF71CFB002070BD70476B
:1057900000487047481000202DE9F0470C7800269B
:1057A00030F8243048F68F121340CA78002A7DD092
:1057B000012A7CD0022A02D0032A7FD0012648F297
:1057C0008002134320F824300D7830F8254048F645
:1057D0008F731C402C43144320F825400D7B48F266
:1057E000C00C48F6BF744CF280074BF68F79EDB3CE
:1057F00091F80080C24630F8285048F280181D40C9
:1058000045EA080520F82A50B0F8505091F8008079
:10581000054405EB0815B1F8088028F00108A5F843
:105820000084B0F8505091F80080054405EB08154D
:10583000B1F80A8028F00108A5F808844D78002DF9
:105840000D7830F825804FEA48487DD0B8F1000F38
:1058500007DA30F8258008EA030848EA070820F844
:1058600025800F7830F827506D0600E02CE006D533
:1058700030F827501D4045EA0C0520F82750CB781A
:105880000D78012B30F8253003EA040301D083F0B2
:105890002003134320F825300B7830F8231001EA59
:1058A0000901114320F82310304602E003E008E02C
:1058B00004E0BDE8F08743F4007380E743F4C0637D
:1058C0007DE743F480637AE74D782DB3B0F850500C
:1058D0000F78054405EB0715CF8827F00107A5F8D9
:1058E00000740F7830F827506D0606D530F8275031
:1058F0001D4045EA0C0520F82750CB78012B06D037
:105900000B7830F82310214081F02001C9E70B7893
:1059100030F823102140C4E7B0F850400D7804441B
:1059200004EB0514CD8825F00105A4F80854B0F85F
:1059300050400D78044404EB05140D6904F20C4446
:1059400075B13E2D14D800E030E04FEA550CED075C
:1059500001D00CF1010C4FF6FF7505EA8C2511E022
:10596000258825F4F8452580258845F4004509E07B
:105970004FEA551CED0601D1ACF1010C4FF4004586
:1059800045EA8C2525800D7830F82540640405D53E
:1059900030F825401C403C4320F825400B7830F877
:1059A000231001EA090181F440517AE7B8F1000FB0
:1059B00007DA30F8258008EA030848EA070820F8E3
:1059C00025800F7830F827506D0606D530F827501F
:1059D0001D4045EA0C0520F827500D7830F8253099
:1059E00003EA090383F44053134320F825308EE77C
:1059F0002DE9F04391F80C804F780A7848F6BF7C87
:105A00004BF68F7948F2800348F2C0054CF28006CD
:105A100048F68F74B8F1000F28D0002F30F82270AC
:105A20004FEA474748D0002F05DA30F82270274068
:105A3000374320F822700A7830F822707F0605D5A7
:105A400030F8227027402F4320F822700D7830F86C
:105A500025202240324320F825200C7830F82420DD
:105A600002EA0C021A4320F824201AE07FB130F831
:105A70002260760605D530F8226026402E4320F8B5
:105A800022600A7830F8221001EA0C010EE030F8AA
:105A900022506D0405D530F822502540354320F8BA
:105AA00022500A7830F8221001EA0901194320F83F
:105AB00022100020BDE8F083002F05DA30F82270B4
:105AC0002740374320F822700A7830F822607606A3
:105AD00005D530F8226026402E4320F822600E784B
