:020000040800F2
:10000000C008002091010008731C0008791B00083B
:10001000711C000881050008591F0008000000003D
:10002000000000000000000000000000F91C0008B3
:10003000CB05000800000000751C0008FB1C000830
:10004000AB010008AB010008AB010008AB010008E0
:10005000AB010008AB010008AB010008AB010008D0
:10006000AB010008AB010008AB01000885050008E2
:10007000AB010008AB01000891050008AB010008C6
:10008000AB010008AB010008AB010008AB010008A0
:10009000AB010008AB010008AB010008AB01000890
:1000A000AB010008AB010008AB010008AB01000880
:1000B000AB010008AB010008AB010008AB01000870
:1000C000AB010008AB010008AB010008AB01000860
:1000D000AB010008AB010008AB010008AB01000850
:1000E000AB010008AB010008AB010008AB01000840
:1000F000AB01000800F002F800F03AF80AA090E81E
:10010000000C82448344AAF10107DA4501D100F0D2
:100110002FF8AFF2090EBAE80F0013F0010F18BF65
:10012000FB1A43F0010318477C2800009C280000BC
:10013000103A24BF78C878C1FAD8520724BF30C813
:1001400030C144BF04680C607047000000230024E5
:1001500000250026103A28BF78C1FBD8520728BFD7
:1001600030C148BF0B6070471FB51FBD10B510BD33
:1001700000F01CF91146FFF7F7FF01F0FFFE00F059
:100180003AF903B4FFF7F2FF03BC00F041F90000B5
:100190000948804709480047FEE7FEE7FEE7FEE71B
:1001A000FEE7FEE7FEE7FEE7FEE7FEE70448054957
:1001B000054A064B70470000751D0008F500000851
:1001C000C0020020C0080020C0040020C00400209D
:1001D00053EA020C00F069802DE9F04B4FF0000665
:1001E000002B1FBFB3FA83F503FA05F424FA05F6D2
:1001F0005E4012BF1643B2FA82F502FA05F4C5F169
:1002000020051EBF22FA05FC44EA0C04203556EAFC
:10021000044C4FEA144418BF641C4FF000084FF020
:100220000009904271EB030C39D3002919BFB1FAD0
:1002300081F701FA07F6B0FA80F700FA07F6C7F17E
:1002400020071EBF20FA07FC46EA0C062037B6FB43
:10025000F4FCA7EB0507103F07F01F0BCBF12006BE
:100260000CFA0BFB2CFA06F644BFB3460026202FEF
:10027000A4BF5E464FF0000B5BEA060C08BF4FF0D0
:10028000010B19EB0B09ABFB027C48EB0608C01B0A
:1002900006FB02CC0BFB03CC71EB0C01C1E70B4658
:1002A000024641464846BDE8F08B13B54FF00000CA
:1002B0004FF00001AFF30080BDE81C4070474FF0E5
:1002C000000200B5134694469646203922BFA0E8A6
:1002D0000C50A0E80C50B1F12001BFF4F7AF0907B2
:1002E00028BFA0E80C5048BF0CC05DF804EB8900A3
:1002F00028BF40F8042B08BF704748BF20F8022BE6
:1003000011F0804F18BF00F8012B704710B504465C
:1003100010F0030F08BF11F0030F40F015804FF0ED
:10032000013E121FC0F20E8051F8043BA3EB0E0CED
:100330002CEA030C1CEACE1C08BF40F8043BF0D0AA
:10034000A1F1040102F10402521E08DB11F8013B85
:10035000002B00F8013BF7D1114600F005F82046CC
:1003600010BD7047704770474FF000020429C0F07D
:10037000128010F0030C3FF4A4AFCCF1040CBCF1DC
:10038000020F18BF00F8012BA8BF20F8022BA1EB29
:100390000C01FFF796BF5FEAC17C24BF00F8012B78
:1003A00000F8012B48BF00F8012B7047754600F09C
:1003B0002BF8AE4605006946534620F007008546F7
:1003C00018B020B5FFF7F2FEBDE820404FF0000660
:1003D0004FF000074FF000084FF0000B21F007012D
:1003E000AC46ACE8C009ACE8C009ACE8C009ACE870
:1003F000C0098D46704710B50446AFF30080204613
:10040000BDE81040FFF7BDBE004870475C02002009
:1004100001491820ABBEFEE726000200704700002D
:1004200070B5044600680168C943490621D4816853
:1004300021F00101816000F0F3FE054614E000BFE9
:1004400000F0EEFE401B02280ED920680068C04371
:10045000400609D4E06C40F01000E064206D40F0EC
:1004600001002065012070BD20680068C04340067F
:10047000E6D5002070BD10B50146406AC26C12F08E
:10048000500F05D0406C026BBDE810400846104785
:10049000C16C41F40071C16401688A6812F0405F68
:1004A00018D190F82420AAB90A6B12F0F87F02D074
:1004B0008A6852050ED44A6822F020024A60C16C54
:1004C00021F48071C164C16CC90403D4C16C41F0D2
:1004D0000101C16400F020F910BD10B5406AC16C83
:1004E00041F04001C164016D41F00401016500F07B
:1004F000A9F910BD10B5406A00F020F910BD000048
:10050000F8B500260446009600680168C94349060C
:100510002FD5816841F001018160174817490068B3
:10052000B0FBF1F000EB400000E0401E009000281E
:10053000FBD100F075FE054616E000BF00F070FE2E
:10054000401B022810D920680068C04340060BD524
:10055000E06C40F01000E064206D40F00100206588
:1005600084F848600120F8BD20680068C043400658
:10057000E4D40020F8BD00005800002040420F00E5
:10058000FEE70000014800F0C7BB0000B0000020FB
:10059000014800F0C1BB00001802002030B590F8FF
:1005A000404004F01C050124AC40C56B6C6004683D
:1005B00063604368102B036803D099600068C260D1
:1005C00030BD9A600068C16030BD704772B6FEE70A
:1005D000F8B50024009490F848202546012A12D04E
:1005E000012280F848204A681F23072A0DD2066896
:1005F000376C521E02EB820293409F430B6893407C
:100600001F43376435E00220F8BD0D2A0BD207687E
:10061000FE6BD21F02EB820293409E430B68934015
:100620001E43FE6325E0132A0BD20668B76B0D3A12
:1006300002EB820293409F430B6893401F43B763D2
:1006400017E00668192A0AD2776B133A02EB820286
:1006500093409F430B6893401F43776309E0376BD8
:10066000193A02EB820293409F430B6893401F4369
:1006700037630A6807230A2A0AD20668776902EBF9
:10068000420293409F438B6893401F4377611CE075
:10069000142A0BD207683E690A3A02EB42029340E1
:1006A0009E438B6893401E433E610EE01A2A0BD88E
:1006B0000768FE68143A02EB420293409E438B683F
:1006C00093401E43FE6000E000BF0A68102A01D07C
:1006D000112A17D10D4A13681B0213D4136843F46F
:1006E00000031360096810290CD10949094A0968F7
:1006F000B1FBF2F101EB8101490000E0491E0091DC
:100700000029FBD180F848502046F8BD042701405D
:100710005800002040420F000648074982884A805E
:1007200042888A800288CA80C2880A8100894881FA
:10073000704700000C0200200000002070470000FD
:1007400070B504000BD0E06C40F00200E06420467D
:10075000FFF766FE06004FF0000502D065E00120BD
:1007600070BD21686FF01F00086020684168314A41
:1007700011404160206881682F4A1140816000BFAC
:100780002068C1686FF31401C1602068016901F03D
:10079000404101612068416901F0404141612068A8
:1007A00081696FF30B0181612068C1696FF30B01EF
:1007B000C1612068016A6FF30B0101622068416A20
:1007C0006FF30B0141622068816A6FF30B01816254
:1007D0002068C16A6FF30B01C1622068016B174A80
:1007E000114001632068416B01F040414163206882
:1007F000816B01F0404181632068C16B01F0404191
:10080000C1632068016C01F0404101642068416CC3
:100810006FF3150141640A48016821F40001016089
:10082000204600F0E1F82565E56484F8485030463C
:1008300070BD000000003CF88CF0808000800FFE4E
:100840000427014070470000F8B504004FF0000590
:1008500003D0E06C002610B110E00120F8BD266541
:100860005C4884F84860016841F00101016000685B
:1008700000F001000090204600F0D2F8E06CC006C5
:100880007AD4E06C20F4885040F00200E0645248D2
:100890000168626821F44031114301606169E068D8
:1008A0004FF40073084394F83C2093FAA3F3B3FA8F
:1008B00083F3216A9A4011430843022194F82420CB
:1008C00091FAA1F1B1FA81F102FA01F10843616BE9
:1008D000102902D0A36B19430843236819684FF409
:1008E0008077C943490629D5A169D4F81CC00843BB
:1008F000A168D4F810E041EA0C01BE450CD0BEF16D
:10090000010F09D04FF0000C41EA0C0194F82CC003
:10091000BCF1010F02D00AE0BC46F5E76AB3E26C15
:1009200042F02002E264226D42F0010222655A6820
:10093000DFF8A8C002EA0C020A435A6021688A68FC
:10094000274B1A4002438A602169B94224D0012909
:1009500022D021680A6B22F0F8720A632168896844
:10096000204A1140814227D12665E06C20F0020028
:1009700040F00100E0642AE028E0FFE74FF4604C1B
:10098000226B9CFAACFCBCFA8CFC521E02FA0CF2F4
:100990000A4342F40061CAE721680A6B4FF0F87716
:1009A00022F0F873A26A97FAA7F7B7FA87F7521EF0
:1009B000BA4013430B63D1E7E06C20F0020040F033
:1009C0001000E064206D40F00100206501252846FC
:1009D000F8BD00002038024004270140FF16FCFC4F
:1009E0008DF1FFC0FEFF80BF10B5044600680949C5
:1009F00088420DD10848016821F4007101600F217F
:100A0000064800F05FFA606CBDE8104000F058B98D
:100A100010BD0000002401402038024000000240C8
:100A200070B586B0054614216846FFF748FC1C499E
:100A30002868884232D11B48016841F40071016086
:100A4000006800F4007005901648001F016841F02E
:100A5000010101600068002600F0010005900F20F0
:100A600000900320CDE9010669460F4800F0BEFA68
:100A70000F4C0E48C4E900068020C4E90260400023
:100A80002061800060612020C4E90606204600F055
:100A9000A1F908B1FFF79AFD6C64656206B070BDFC
:100AA000002401402038024000000240086002405B
:100AB000B00000202DE9F041044690F848001646A9
:100AC0000F46012808D0012084F848002046FFF78F
:100AD00017FD050003D047E00220BDE8F081E06C7F
:100AE00040F20161884340F48070E064206840680F
:100AF000400505D5E06C20F4005040F48050E064DF
:100B0000E06CC1044FF0000004D5216D21F0060116
:100B1000216500E0206584F84800616C1348886214
:100B2000616C1348C862616C1248086321686FF0F9
:100B3000220008602068416841F0806141602068BF
:100B4000816841F480718160216833463A465831AA
:100B5000606C00F06DF92068816811F0405F03D18E
:100B6000816841F0804181602846B6E7770400083B
:100B7000F5040008DB04000870B54379012B1CD094
:100B8000012646710223037105682B6802F01004E8
:100B900040F6FE72A2409343D1E900210A43A240ED
:100BA0001A432A6001680A68C023A3409A430A6076
:100BB000067100214171084670BD022070BD70B5FC
:100BC000040003D02079002510B105E0012070BD9C
:100BD0006571204600F008F802202071256101208F
:100BE0002071002070BD000010B586B004461421AD
:100BF0006846FFF764FB1149206888421CD1104801
:100C0000016841F000510160006800F0005005905B
:100C10000B480838016841F001010160006869462D
:100C200000F001000590302000900320019000208A
:100C30000290044800F0DAF906B010BD00740040DC
:100C4000243802400000024018B50468009400688F
:100C5000104421B1143000900360002018BD08300A
:100C6000F9E770B54279012A1ED0012242710223B0
:100C700003710468266801F0100302FA03F52E439D
:100C800026600029016811D00C6804F470153C241A
:100C90009C40A54203D14B6843F002034B600271B4
:100CA00000214171084670BD022070BD0B68C3F37E
:100CB00083030F2BF3D14B6843F00103EEE70000F1
:100CC00018B301680A6822F001020A60104902683C
:100CD00014231144B1FBF3F1890001640D49C16390
:100CE0000021116090F8402002F01C0301229A407C
:100CF000C36B5A608162C16201634163816380F8A2
:100D0000211080F82010084670470120704700002D
:100D1000F89FFDBF00600240F0B4C16B0C68016831
:100D20000D6890F8402002F01C06042202FA06F337
:100D3000234211D06B070FD50B689B0603D40B68B9
:100D400023F004030B6090F8401001F01C018A406E
:100D5000C16B4A60C16A1DE0022303FA06F727420D
:100D60004FF0000C4FF0010218D0AF0716D50C68F9
:100D7000A40605D40C6824F00A040C6080F8212035
:100D800090F8401001F01C018B40C16B4B6080F863
:100D900020C0816A00291AD0F0BC08470823B3405C
:100DA000234214D02B0712D50B6823F00E030B60DF
:100DB00090F84010C36B01F01C0102FA01F1596078
:100DC000826380F8212080F820C0016BE2E7F0BC4C
:100DD0007047000030B528B308C8134914221944DD
:100DE000B1FBF2F18900C1631049816302214177AF
:100DF0001A6847F6F0718A43D0E900142143D0E91C
:100E000002452C43214304692143446921438469F9
:100E10002143114319600021416301224277017788
:100E2000084630BD012030BDF89FFDBF0060024084
:100E300070B5044690F82000002501280CD0012050
:100E400084F8200094F821600020012E06D084F858
:100E500020000225284670BD022070BD022684F8BD
:100E60002160A0632068066826F00106066020461F
:100E7000FFF794FBE06A00282068016802D041F087
:100E80000E0106E021F0040101602068016841F0D4
:100E90000A0101602068016841F001010160D9E7A1
:100EA00070B5044600F0BCF90546601C02D0044849
:100EB0004068044400F0B4F9401BA042FAD370BD6E
:100EC0004C0000202DE9F84F00230126DFF804C173
:100ED0000F277AE006FA03F414EA010274D023F033
:100EE00003056544AA46D5F808909D074FEA157E8C
:100EF00007FA0EF505EA090B0095374DA84202D115
:100F00004FF0000813E0354DA84202D14FF0010820
:100F10000DE0334DA84202D14FF0020807E0314DF9
:100F2000A84202D14FF0030801E04FF0050808FA8B
:100F30000EF8D84524D1DFF8B080D8F8009029EA1F
:100F40000209C8F8009008F10408D8F8009029EACE
:100F50000209C8F8009008F10408D8F8009029EABE
:100F60000209C8F8009008F10408D8F80050954329
:100F7000C8F80050009ADAF808509543CAF80850AB
:100F8000D0F800804FEA4309032202FA09F228EA66
:100F90000208C0F80080DD0800EB8505AA46D5F8F8
:100FA00020804FEA43794FEAD96907FA09F528EA20
:100FB0000508CAF82080C5689543C5604568A54303
:100FC00045608468944384605B1C31FA03F281D1EC
:100FD000BDE8F88F0000014000000240000402401C
:100FE00000080240000C0240000401402DE9F04FCF
:100FF000DFF80492002309F1040A012603240AF110
:10100000040B85B00F270BF1040EEDE006FA03F593
:101010001CEA05027DD091F804C00CF0030CBCF171
:10102000010F02D0BCF1020F26D1D0F80880CDF814
:1010300000804FEA430804FA08FCCDF81080DDF880
:10104000008028EA0C08CDF80080D1F80CC0DDF84B
:1010500010800CFA08FCDDF800804CEA080CC0F89F
:1010600008C0D0F804C02CEA050C0D79C5F30015B2
:101070009D4045EA0C0545600D79ED43AD070ED066
:10108000C5684FEA430804FA08FC25EA0C05D1F8C4
:1010900008C00CFA08FC4CEA050CC0F80CC00D792D
:1010A00005F00305022D19D1DD0800EB8505029539
:1010B0002D6A4FEA437C4FEADC6CCDF810C007FA8A
:1010C0000CFC25EA0C05D1F81080DDF810C008FAF8
:1010D0000CF848EA0508029DC5F8208005684FEA2B
:1010E000430804FA08FC25EA0C0591F804C00CF04A
:1010F000030C0CFA08FC4CEA050CC0F800C04D6863
:1011000015F4403F6FD03D4DD5F800C04CF0010CB8
:1011100000E068E0C5F800C02D6823F0030C05F07E
:1011200001050095364D65440295AD684FEA837C14
:101130004FEA1C7807FA08FC25EA0C05DFF8C4C062
:10114000604502D14FF0000C16E0DFF8BCC06045EE
:1011500002D14FF0010C0FE0DFF8B0C0604502D1C2
:101160004FF0020C08E0DFF8A8C0604502D14FF054
:10117000030C01E04FF0050C0CFA08FC4CEA050CDE
:10118000029DC5F808C0D9F80050CC46D1F80480BB
:1011900095435FEAC83800D51543CCF80050DAF81B
:1011A0000050D446D1F8048095435FEA883800D5D2
:1011B0001543CCF80050DBF80050DC46D1F8048031
:1011C00095435FEAC82800D51543CCF80050DEF8F7
:1011D0000050F446D1F8048095435FEA882800D592
:1011E0001543CCF800505B1C0A689446DA407FF443
:1011F0000DAF05B0BDE8F08F00040140203802407B
:1012000000000140000002400004024000080240CB
:10121000000C02400AB1816170470904FBE700003D
:1012200001488068704700004C0000200248816837
:1012300042681144816070474C00002010B50024C2
:10124000032000F079F80F2000F008F808B101241D
:1012500001E000F025F8204610BD000070B50E4EEC
:1012600005460024706898B14FF47A71B1FBF0F034
:101270000A490968B1FBF0F000F0A8FB40B9102D55
:1012800006D200222946501E00F036F8356000E0F4
:101290000124204670BD00004C00002058000020B2
:1012A0000D4808B5016841F000410160016801F096
:1012B00000410091011F0A6842F001020A600968BA
:1012C00001F001010091016841F080510160006866
:1012D00000F08050009008BD24380240002809DB4F
:1012E00000F01F02012191404009800000F1E02040
:1012F000C0F8001170470000F0B40E4B1B680C469C
:10130000C3F30223C3F10705042D00D90425191DD9
:10131000072901D2002300E0DB1E012606FA05F1B1
:10132000491E214099409E40761E16403143F0BC34
:1013300000F013BE0CED00E0064900F0070208685B
:101340004FF6FF03184040EA0220034A10430860AA
:10135000704700000CED00E00000FA052DE9F047B1
:101360000E46050079D0DFF88481D8F8000000F03F
:101370000100B04214D2012E05D1D8F8001041F07E
:101380000401C8F80010D8F8001021F00101314321
:10139000C8F80010D8F8000000F00100B0425CD19D
:1013A0002878534C800705D52068A96820F0F00004
:1013B000084320602878C0075CD04D496868083928
:1013C00002281AD003281BD0096801281BD08905E0
:1013D000002966DA216821F0030101432160FFF74B
:1013E0001FFF6968074641F28830022914D003299B
:1013F00020D0012981462AD038E009688903E7E72F
:1014000009688901E4E78907E2E700BFFFF708FF01
:10141000C11B494501D926E081462068C0F38100FF
:101420000228F3D126E000BFFFF7FAFEC11B4945B1
:1014300001D918E081462068C0F381000328F3D168
:1014400018E000BFFFF7ECFEC11B49450BD8206830
:10145000C0F381000128F5D10CE022E0FFF7E0FEA7
:10146000C11B494502D90320BDE8F087206810F070
:101470000C0FF3D1D8F80010404601F00101B14241
:1014800011D9012E03D1016841F004010160016806
:1014900021F0010131430160006800F00100B04219
:1014A00001D00120E0E72878400705D52068E968E9
:1014B00020F4E060084320602878000706D5206803
:1014C000296920F4605040EAC100206000F038F83B
:1014D0002168084AC1F30311515CC84006490860FD
:1014E00006480068BDE8F047FFF7B8BE003C024080
:1014F000083802408B290008580000204C000020CA
:101500000448054900680968044AC1F30221515C96
:10151000C840704758000020083802409B29000846
:101520000448054900680968044AC1F3C221515CB6
:10153000C840704758000020083802409B29000826
:1015400070B5154D2968154801F00C02042A0CD01D
:101550004410082A0AD00C2A0AD0281F0068C0F3B9
:1015600042314FF40040491C884070BD204670BD98
:101570000B4AC1F38343D35CC1F381522968521CE7
:10158000C90302D5A3FB040101E0A3FB0001002372
:10159000FEF71EFE70BD0000083802400024F40073
:1015A000822900082DE9F84F04007DD0FC4801682D
:1015B000006801F00C0700F480362078F94DC00770
:1015C00041D0082F12D00C2F02D1B6F5803F0DD09C
:1015D0006068012811D008B1052818D0286820F4C7
:1015E00080302860286820F4802009E02868800383
:1015F00029D560680028D8D025E0286840F48030DC
:101600002860606890B1FFF70BFE80460AE028680A
:1016100040F480202860F0E7FFF702FEA0EB08000E
:1016200064287BD828688003F6D50CE0FFF7F8FD26
:10163000804605E0FFF7F4FDA0EB08006428F0D831
:1016400028688003F6D42078DFF85CB3DFF85C8389
:1016500080074FF001094FF0000A35D5042F0AD05A
:101660000C2F00D13EB1E068F8B1C8F80090FFF748
:10167000D7FD06460BE0286880070BD5E0680128F7
:1016800012D107E0FFF7CCFD801B0228C9D82868DB
:101690008007F7D5DBF80010226921F4F85141EA00
:1016A0000221CBF800100FE077E1C8F800A0FFF7A7
:1016B000B7FD064605E000BFFFF7B2FD801B02281C
:1016C000AFD828688007F7D42078C00674D53FB11A
:1016D000A069E0B3C8F82090FFF7A2FD06464AE0F3
:1016E0002868800502D5A069002884D0206ADBF82C
:1016F00000105E4601F46041884210D900F0BCFA47
:101700000028BDD13068216A20F460400843306071
:10171000217F306861F31F6030600FE096E0316830
:1017200021F4604101433160217F306861F31F6023
:101730003060206A00F0A0FA0028A1D1216A4FF49D
:10174000004009EB513188409549096800E025E0E7
:10175000974AC1F30311515CC84096490860964806
:101760000068FFF77BFD00286FD125E0FFF758FDEB
:10177000801B02286AD828688005F7D5DBF800109E
:10178000226A21F460411143CBF80010227FDBF87C
:10179000001062F31F61CBF800100DE0C8F820A024
:1017A000FFF73EFD064604E0FFF73AFD801B0228E6
:1017B0004CD828688005F7D42078804E000722D5C1
:1017C0007F48616981B1C0F80090FFF729FD834629
:1017D00006E000BFFFF724FDA0EB0B00022835D880
:1017E00030688007F6D50EE0C0F800A0FFF718FDBE
:1017F000834605E0FFF714FDA0EB0B00022825D877
:1018000030688007F6D4207840076DD56B484FF0DC
:10181000000B10380068C0000BD46848103801680D
:1018200041F08051016000684FF0010B00F08050E2
:10183000009064480168C90514D4016841F48071BE
:101840000160FFF7EDFC009008E08DE079E000BF5B
:10185000FFF7E6FC0099401A642872D859480068DE
:10186000C005F5D5A06801280AD008B1052811D017
:10187000306820F480703060306820F4806002E0CE
:10188000306840F480703060A068A8B1FFF7C8FCF1
:1018900000900DE0306840F480603060F0E700BFF9
:1018A000FFF7BEFC0099411A41F2883081425AD8B4
:1018B00030688005F4D50EE0FFF7B2FC009007E039
:1018C000FFF7AEFC0099411A41F2883081424AD8B4
:1018D00030688005F4D4BBF1000F05D037481038CC
:1018E000016821F080510160606A58B30C2F41D02B
:1018F0000228504605D0C8F86000FFF791FC044666
:1019000034E04746C8F86000FFF78AFC064604E06A
:10191000FFF786FC801B022825D828688001F7D4B1
:10192000D4E90A1001431E48226B036823F47D03A7
:101930001A4311430160C7F86090FFF771FC044639
:1019400007E010E040E000BFFFF76AFC001B022840
:1019500009D828688001F7D536E000BFFFF760FCA2
:10196000001B022802D90320BDE8F88F28688001F7
:10197000F4D429E00128F7D009480068A26A00F4ED
:101980008031914209D1E26A00F47011914204D190
:10199000216B00F44000884216D00120E4E70000EB
:1019A0000838024000380240043802400000474234
:1019B0008B290008580000204C00002034380240D9
:1019C00080064742007000400020CDE710B5401E61
:1019D000B0F1807F01D3012010BD4FF0E0246061A1
:1019E0000F21601700F0B9FA0020A06107202061E4
:1019F000002010BD704770B5040004D094F83D007D
:101A0000002510B106E0012070BD84F83C5020464E
:101A100000F022F8242084F83D002068C16821F4F9
:101A20000051C160204600F009FA2068016921F4E4
:101A3000904101612068416921F02A0141612068DB
:101A4000C16841F40051C1602564202084F83D0044
:101A500084F83E00002070BD70B586B006461421A3
:101A60006846FEF72CFC1E493068884236D11D4876
:101A7000016841F480410160006800F480400590F5
:101A80001848001F016841F001010160006800254D
:101A900000F0010005904FF4C06000900220CDE9F5
:101AA0000105032003900720049069460E48FFF7C4
:101AB0009DFA0F4C0D4820601020C4E901058020DC
:101AC000C4E903052020C4E905502046E561FFF77D
:101AD00081F908B1FEF77AFD7463666206B070BDE5
:101AE00000380140203802400000024044600240BB
:101AF0001802002070B5044690F83D00202830D12F
:101B000069B362B394F83C0001282AD0012084F81C
:101B10003C002162A284E28400252564212084F80F
:101B20003D00636B10489862636B1048D862636B2A
:101B30000F481863606B134645632668606B321D5F
:101B4000FFF776F921686FF04000086084F83C5098
:101B50002068416941F080014161002070BD012091
:101B600070BD022070BD0000C11D0008EF1D0008FF
:101B7000771D000870477047FEE70000FEB500249F
:101B80002B48009401942949029401604FF40031DC
:101B9000C0E901144912C0E9034144618461C46190
:101BA0000125046280F824500526866280F82C40C6
:101BB0001021C0E90D1480F83C50FEF745FE08B135
:101BC00072B6FEE7CDE90045694619480294FEF772
:101BD000FFFC08B172B6FEE70224CDE90054694665
:101BE0001348FEF7F5FC08B172B6FEE70094032433
:101BF00069460F480194FEF7EBFC08B172B6FEE7A8
:101C00000420CDE9004069460948FEF7E1FC08B12F
:101C100072B6FEE71120CDE9000669460448FEF7DA
:101C2000D7FC002801D072B6FEE7FEBD00240140BB
:101C30005C0000200D4808B5016841F0807101602A
:101C40000068002200F08070009011460B20FFF722
:101C500053FB0B20FFF742FB002211460E20FFF73B
:101C60004BFBBDE808400E20FFF738BB1C38024094
:101C7000FEE7FEE77047000038B51C4900230968FD
:101C80001B4A11F0F00F23D118491C310C68E500F4
:101C9000184C03D5216801F4C0540EE00D6845F0DE
:101CA00080550D600D6805F08055009524680D681D
:101CB00004F4C05425F080550D60B4F5C05F07D121
:101CC000B0F5404F04D11068012340F004001060CB
:101CD000106820F0010018431060106800F0010047
:101CE000984201D0012038BD002038BD083802409C
:101CF000003C0240007000407047FFF797BA0000B8
:101D000010B592B034216846FEF7D9FA14210DA817
:101D1000FEF7D5FA1648016821F4C05141F400617C
:101D2000016001200324CDE90040039010200490BD
:101D300002200990C0030A9000010B90C0000C9093
:101D40006846FFF72FFC08B172B6FEE70F20CDE919
:101D50000D0400200F901090119001210DA8FFF7A5
:101D6000FDFA002801D072B6FEE712B010BD0000E7
:101D700000700040704770B5446A2068406994F86C
:101D80003D10C0F3C0100025212904D118B1E5840D
:101D9000204600F049F82068406994F83E10C0F3EE
:101DA0008010222904D118B1E585204600F024F8DE
:101DB000206C40F0100020642046FFF71BFE70BD31
:101DC00010B50146406A0968096889060CD40021EB
:101DD000C18401684A6922F080024A610068C168D2
:101DE00041F04001C16010BDFFF7C4FE10BD10B549
:101DF000406AFFF7C0FE10BD0168CA6822F4907205
:101E0000CA6001684A6922F001024A61016B012936
:101E100004D10168CA6822F01002CA60202180F84B
:101E20003E100021016370470168CA6822F0C002B9
:101E3000CA60202180F83D10704700002DE9F04174
:101E4000044600680169E26821F4405111430161D0
:101E50002169A068E2690843616911432268084367
:101E6000D16849F20C6399430143D160206841690C
:101E7000A26921F4407111434161364920688842CA
:101E800002D1FFF74DFB01E0FFF73AFB0246E369A1
:101E900064203221B3F5004F02EBC20303EB0213BF
:101EA00062682BD09200B3FBF2F5B5FBF0F5B3FB03
:101EB000F2F66FF018077D4306EB8505B3FBF2F6EB
:101EC00001EB0515B5FBF0F5B6FBF0F605F0F005F6
:101ED00005EB0615B3FBF2F6B3FBF2F2B2FBF0F240
:101EE0007A4306EB820201EB0211B1FBF0F000F045
:101EF0000F00216828448860BDE8F0815200B3FBE0
:101F0000F2F6B6FBF0F6B3FBF2F7B3FBF2F56FF0C7
:101F1000180C06FB0CF607EB860601EBC606B5FBB4
:101F2000F0F5B6FBF0F62D0106F0F80605EB4605D8
:101F3000B3FBF2F6B3FBF2F2B2FBF0F202FB0CF2EF
:101F400006EB820201EBC201B1FBF0F000F00700EA
:101F5000CFE7000000380140FEE70907090E00281E
:101F600004DB00F1E02080F80014704700F00F005F
:101F700000F1E02080F8141D7047000088B0FFF7E2
:101F80005DF9FFF7BDFE14216846FEF798F9B648E3
:101F9000016841F020010160016801F02001059114
:101FA000016841F0010101600068B04C00F00100DF
:101FB0000590012240212046FFF72CF94020009097
:101FC00001200025CDE90105694620460395FFF76C
:101FD0000DF8FFF72FFEFFF7D1FDA6490095A448A5
:101FE000019508600846FEF7EAFD08B172B6FEE703
:101FF0000095002269469F480195FEF7BDFD08B196
:1020000072B6FEE7102269469A48FEF7B5FD08B1A0
:1020100072B6FEE797489849143001604FF4965124
:1020200041604FF48051C0E902154FF4C061016175
:102030000C21C0E90515C561FFF7DDFC08B172B6DA
:10204000FEE700F02DF98D4C4FF40009E06948459A
:1020500004DA012240218548FFF7DCF8206A06886F
:10206000608900F0C9FA82465746304600F0C4FA4B
:1020700080463946019000F0DDF9814F394600F085
:10208000CFFA00905046DFF8FCA1514600F0C8FAA4
:1020900006460790608800F0AFFA394600F0C0FAB3
:1020A000414600F0BDFA314600F0C4F9764900F02F
:1020B000C1F9764900F0BEF94FEA4708404501D220
:1020C000206400E025647249206C00F0A9FA0690B3
:1020D000059001980390D346079EE08800F08CFAA3
:1020E000022100F010FCBA46394600F099FA039933
:1020F00000F096FA314600F09DF9059900F05CFB7E
:102100004646B04201D2606400E065640698D84655
:102110000590A088DDF804B0079F00F06DFA022159
:1021200000F0F1FB514600F07BFA594600F078FAD6
:10213000394600F07FF9059900F03EFBB04201D22C
:10214000E06300E0E563C3462089DDF80480079F73
:1021500000F052FA4F4900F063FA514600F060FA7D
:10216000414600F05DFA394600F064F9B04201D210
:10217000A06400E0A5642078E8B16FF00101E06997
:1021800000F0C1FB444900F0EDF8594600F048FA70
:10219000009900F04FF900F00FFA83B20022A381FA
:1021A00011463448FEF750FDE069E5626562A562BC
:1021B000A06325704BE0E1690291E06B00F0FCFA4E
:1021C000074660623946E06A00F0CCF8E06280467B
:1021D0003846216B00F0F0FA27630146A062A0693F
:1021E00000F01EFA82464146606900F019FA804606
:1021F0003946206900F014FA414600F0B3F8514620
:1022000000F0B0F801466063029800F0D5FA234967
:10221000A063884201DDA16302E0B04200D3A56360
:102220006FF00101A06B00F06EFB1B4900F09AF803
:10223000594600F0F5F9009900F0FCF800F0BCF9FF
:1022400083B20022A38111460A48FEF7FDFCE06933
:10225000484504DB002240210448FEF7DBFF012053
:10226000FEF71EFEF2E600001C38024000000240AD
:1022700000740040F40000200038014000000020FD
:102280000000404000F07F450000A0419A99193EAF
:102290003333B33E0000A040C9D9E43D00004041C3
:1022A00010B5012240212448FEF7B4FF2348FEF771
:1022B00047FA22485430FEF703FDFFF7BBFCFFF757
:1022C0005DFC05221E491D48FEF7F4FB1B4800215A
:1022D0009830FEF7C6FC194810219830FEF7C1FC73
:1022E000002316481A4619469830FEF7ADFC1348ED
:1022F00000231A4610219830FEF7A6FC1048402112
:10230000C038FDF7DCFF0E4840218038FDF7D7FFCD
:102310000B4840214038FDF7D2FF09481D2209A192
:10232000C038FDF7F3FF06494022C039BDE8104030
:10233000A1F14400FFF7DEBB000002405C0000207A
:102340000C02002048656C6C6F20576F726C642023
:1023500046726F6D205365636F6E64204D43550A5E
:102360000000000090EA010F48BF81F0004100F139
:102370002A82421A3CBF801A89184FEAD0524FF085
:102380007F4C1CEA410FA2EBD15318BF9CEA026FAD
:1023900000F03B804FF0004C4CEA00204CEA012159
:1023A00021FA03FC10EB0C0C1ED202F1FF325FEAA3
:1023B0001C2040EBC25038BF70471CF07F0F4FEA23
:1023C000400C18BFBCF17F4F38BF7047C3F12003EA
:1023D000994008BF20F00100BCF17F4F38BF704723
:1023E000A0F1C04000F0E3B94FEA3C00000A40EB26
:1023F000C25028BF1CF0FF0F4FEA400CE6D018BFB8
:10240000BCF17F4F38BF7047EAE79CEA026F05D006
:1024100010EA5C0F08BF00F00040704710B500F0F4
:1024200080F900BF64FBBE3E014800F03ABA00BF2D
:102430000000C07F4FF47F0C1CEAD0121EBF1CEAC4
:10244000D11392EA0C0F93EA0C0F00F0858090EA0A
:10245000010F48BF42F4807240F4000C41F40000C8
:102460002CF07F4120F07F4000B58142A2EB0302B7
:102470000FF2081CACEB504EC0F100009EF800E0DB
:102480004FEA4E0E00FB0EFC38BF49004FEA2C1CF1
:1024900002F5FA020CFB0EF34FEACE1E4FEA112CA6
:1024A0004FEAC1210EEB635E42EB22420EFB0CFCB5
:1024B0004FEA1C5300FB03114FEA112C4FEA013184
:1024C0000EFB0CFC4FEADC4C00FB0C11C14228BF98
:1024D00009184CEB03335DF804EB10EB410143EBBF
:1024E000C250B2F57C0F38BF704729D512F0F00FFB
:1024F0001CBF00F1C04000F00040704700818283A3
:102500008485868788898B8C8D8E8F919293959602
:1025100097999A9C9D9FA0A2A3A5A7A8AAACAEB08C
:10252000B2B3B5B7B9BCBEC0C2C5C7C9CCCED1D491
:10253000D7D9DCDFE2E6E9ECF0F3F7FAFE000000C1
:102540004FEA400C0CF1807CBCF17E4F28BF7047F5
:10255000B0F1C04000F02BB990EA010F0CEAD113A2
:1025600048BF42F48072624538BF634507D213F416
:102570007F0F16D080EA010000F00040704710B5D0
:1025800000F0CFF8097EFC3E00F005B880EA0100BB
:1025900000F00040704780EA010000F0004000F0C9
:1025A00006B912F47F0F04BF0248704780EA0100A9
:1025B00000F0FDB80000C07FC10DD1F19E0206DB26
:1025C0004FEA002343F0004323FA02F07047004231
:1025D00007D54FEA4001B1F1FE4F02D24FF00000A3
:1025E000704710B500F09DF8499224800020704794
:1025F0006FEA200070470000B0FA80F310FA03F28F
:10260000C3F19D030AD0D90501EB1220530638BF50
:10261000704700F1010008BF20F001007047000082
:102620004FF47F0C1CEAD0121EBF1CEAD11392EAB1
:102630000C0F93EA0C0F00F0478090EA010F48BF9F
:1026400042F480724FF0004C4CEA00204CEA012129
:1026500002EB0302A0FB0113A2F50002002918BF40
:1026600043F001035B0028BF4FEA330342EB2242F1
:102670005FEA132C4CEBC2502EBFBCEB436FB2F59C
:102680007C0F70474FEA036CBCF1004F08BF20F08D
:102690000100B2F57C0F38BF70470BD582F0FF0206
:1026A00012F5803FC8BF704700F1C040D8BF00F0AE
:1026B0000040704700F5000C5FEA4C0C48BF7047C3
:1026C000B0F1C04000F073B890EA010F0CEAD113EA
:1026D00048BF42F48072624538BF634504D280EA45
:1026E000010000F00040704710B500F01AF800BF7C
:1026F0008900013E00F007B800F009B85FEA410C1C
:102700005FEA1C6C08D080EA010000F050B85FEA74
:10271000400C5FEA1C6CF6D14FF00040A0F5800041
:1027200070470EF1020E2EF0030E5EF8044B2442A9
:1027300004D44FEA4102B2F17F4F11D84FEA40036F
:10274000B3F17F4F0CD80ED14FEAD07CB2F17F4F5E
:102750000CEB4C0C0CF1020C08BF4CEBD17C04E0F0
:102760004FF0080C01E04FEAD17C0CEB4C0324FA4B
:1027700003F404F00704B4F1040C06D20EEB840C4D
:10278000BDE810404CF0010C6047DFE80CF0070892
:1027900002024FF00040A0F5800010BD0846420044
:1027A00018BFD2F1807288BF00F0004010BDFF2139
:1027B00041EAD050C005704790EA010F48BF81F050
:1027C00000413FF5D6AD421A04D882F00042A0EB9A
:1027D000020011444FEAD0524FF07F4C1CEA410FE7
:1027E000A2EBD15318BF9CEA026F4AD04FF0004CC5
:1027F0004CEA00204CEA012121FA03FCB0EB0C0C5E
:102800000FD412F0FE0F36D05FEA4C001DD5001237
:1028100040EBC25038BF70471CF03F0F18BF7047E5
:102820000BE0A2F101025FEA1C2040EBC25038BF6E
:1028300070471CF07F0F18BF7047C3F12003994009
:1028400014BF401E20F00100704780084FEA122399
:1028500008BF7047B0FA80FCA2EB0C02CCF1280C48
:1028600060FA0CF093EA122F04BF00EBC2507047DD
:102870004FEAC3707047130A5FEADC1008BF704765
:10288000F6E79CEA026F04D010EA5C0F08BF002054
:10289000704710B5FFF745FF40DFF63E81F000407E
:1028A00070470CF00F03092B08BF082000F051807F
:1028B0000A2B0BD0082B18BF704708BF1CF0400F25
:1028C0000AD04FF000004FF0000170471CF0400F9D
:1028D00018BF4FF0004070471CF0100F08D020F0D8
:1028E000704300F07F4242EAD3014FEA43707047E1
:1028F00000F0604021F07F4242EA000201F07F4098
:1029000040EA727070474FF0FF0212EAD0521CBFCB
:1029100092F0FF038B42C2BFD14200EBC15070471F
:10292000002A0AD0002B0BD0002900F00040A4BFE1
:1029300040F0FE4040F40000704700F00040704757
:1029400043024FF00B0C18BF4CF0806C7FF46CAD61
:1029500070471CF4801F11D01CF4E02F03D06FEAE5
:10296000CC31490070474FF04050EFF3008222F025
:10297000704242EA000282F3008870474FF0000084
:102980007047030406080C101820300000000000F7
:10299000000000010203040607080900000000010E
:1029A00002030400C4290008000000205C000000AD
:1029B00030010008202A00085C00002064080000A4
:1029C0004C010008010000000000000000000000B1
:1029D00000000000CDCCCC3DCDCCCC3DCDCCCC3D11
:1029E000000000007800F81F000000000000000058
:1029F00000000000000000000000000000000000D7
:102A000000000000000000000000000000000000C6
:102A100010000000010000000000000068FF1F001F
:04000005080000F5FA
:00000001FF
